:020000040000FA
:0400000007EF00F016
:0A0008003D827FED0FF011EF14F0C0
:101000000049492E2053455420484F555220202056
:101010002000562E2053544F50205741544348200F
:1010200020200049562E20534554205345434F4E0F
:10103000442020004949492E20534554204D494E13
:101040005554452000492E204449474954414C20DD
:101050005741544348005F5F00002C50D8A433EF41
:1010600008F035EF08F02CEF09F053EC12F0010E08
:1010700027EC13F0010E2C6E2CEF09F0800E27ECFC
:1010800013F0450E1B6E100E1C6EBCEC13F0C00E60
:1010900027EC13F0C40E27EC13F035C015F0166AD8
:1010A000000E186E0A0E176E7BEC10F01550300F04
:1010B00001EC13F035C015F0166A000E186E0A0E1A
:1010C000176E3FEC11F01550300F01EC13F03A0E93
:1010D00001EC13F036C015F0166A000E186E0A0EF9
:1010E000176E7BEC10F01550300F01EC13F036C08A
:1010F00015F0166A000E186E0A0E176E3FEC11F00E
:101100001550300F01EC13F03A0E01EC13F037C01C
:1011100015F0166A000E186E0A0E176E7BEC10F0B2
:101120001550300F01EC13F037C015F0166A000EA1
:10113000186E0A0E176E3FEC11F01550300F01ECCF
:1011400013F04DEF09F0800E27EC13F0010E1B6E2B
:10115000100E1C6EBCEC13F04DEF09F0800E27EC66
:1011600013F0340E1B6E100E1C6EBCEC13F04DEF22
:1011700009F0800E27EC13F0230E1B6E100E1C6E70
:10118000BCEC13F04DEF09F0800E27EC13F0120EBB
:101190001B6E100E1C6EBCEC13F0000E336E000EB6
:1011A000326E000E316ECA0E27EC13F033C015F00C
:1011B000166A000E186E0A0E176E7BEC10F01550B2
:1011C000300F01EC13F033C015F0166A000E186EE4
:1011D0000A0E176E3FEC11F01550300F01EC13F0B2
:1011E000C70E27EC13F032C015F0166A000E186E09
:1011F0000A0E176E7BEC10F01550300F01EC13F057
:1012000032C015F0166A000E186E0A0E176E3FEC0B
:1012100011F01550300F01EC13F0C40E27EC13F051
:1012200031C015F0166A000E186E0A0E176E7BECB0
:1012300010F01550300F01EC13F031C015F0166AA4
:10124000000E186E0A0E176E3FEC11F01550300F9D
:1012500001EC13F04DEF09F03B501D6E1E6A1E505D
:10126000000AD8B436EF09F04DEF09F01D50000A1E
:10127000D8B43EEF08F0010AD8B4A3EF08F0030A8F
:10128000D8B4AEEF08F0010AD8B4B9EF08F0070AF5
:10129000D8B4C4EF08F04DEF09F012002C50D8A4D8
:1012A00054EF09F056EF09F04DEF0AF082EC12F01E
:1012B000010E4DEC13F0010E2C6E4DEF0AF0800E76
:1012C0004DEC13F0450E076E100E086EDBEC13F0BC
:1012D000C00E4DEC13F0C40E4DEC13F035C001F010
:1012E000026A000E046E0A0E036EDDEC10F001506F
:1012F000300F73EC13F035C001F0026A000E046E7B
:101300000A0E036E97EC11F00150300F73EC13F0DE
:101310003A0E73EC13F036C001F0026A000E046E50
:101320000A0E036EDDEC10F00150300F73EC13F079
:1013300036C001F0026A000E046E0A0E036E97ECCE
:1013400011F00150300F73EC13F03A0E73EC13F000
:1013500037C001F0026A000E046E0A0E036EDDEC67
:1013600010F00150300F73EC13F037C001F0026A37
:10137000000E046E0A0E036E97EC11F00150300F50
:1013800073EC13F06EEF0AF0800E4DEC13F0010ECB
:10139000076E100E086EDBEC13F06EEF0AF0800E95
:1013A0004DEC13F0340E076E100E086EDBEC13F0EC
:1013B0006EEF0AF0800E4DEC13F0230E076E100E48
:1013C000086EDBEC13F06EEF0AF0800E4DEC13F0BC
:1013D000120E076E100E086EDBEC13F0000E336E6B
:1013E000000E326E000E316ECA0E4DEC13F033C09B
:1013F00001F0026A000E046E0A0E036EDDEC10F0BE
:101400000150300F73EC13F033C001F0026A000E8C
:10141000046E0A0E036E97EC11F00150300F73EC5E
:1014200013F0C70E4DEC13F032C001F0026A000E4B
:10143000046E0A0E036EDDEC10F00150300F73ECF9
:1014400013F032C001F0026A000E046E0A0E036E41
:1014500097EC11F00150300F73EC13F0C40E4DEC0B
:1014600013F031C001F0026A000E046E0A0E036E22
:10147000DDEC10F00150300F73EC13F031C001F0CF
:10148000026A000E046E0A0E036E97EC11F0015012
:10149000300F73EC13F06EEF0AF03B50096E0A6ADE
:1014A0000A50000AD8B457EF0AF06EEF0AF009505C
:1014B000000AD8B45FEF09F0010AD8B4C4EF09F00C
:1014C000030AD8B4CFEF09F0010AD8B4DAEF09F073
:1014D000070AD8B4E5EF09F06EEF0AF0120067EFE3
:1014E0000BF0020E2B18D8A478EF0AF07AEF0AF06E
:1014F00080EF0BF0010E3A6E80EF0BF0020E2B180E
:10150000D8B485EF0AF087EF0AF0E5EF0AF0000E95
:101510003A6EC8EF0AF0010E3524156E166A000EF9
:101520001622000E186E180E176E3FEC11F01550B3
:10153000356EE5EF0AF0010E3624156E166A000EC0
:101540001622000E186E3C0E176E3FEC11F015506F
:10155000366EE5EF0AF0010E3724156E166A000E9E
:101560001622000E186E3C0E176E3FEC11F015504F
:10157000376EE5EF0AF02450D8B4C1EF0AF0C4EF9B
:101580000AF0010EC5EF0AF0000E246EE5EF0AF036
:101590003B501B6E1C6A1C50000AD8B4D2EF0AF0F4
:1015A000E5EF0AF01B50010AD8B48BEF0AF0030AEA
:1015B000D8B49BEF0AF0010AD8B4ABEF0AF0070ADF
:1015C000D8B4BBEF0AF0E5EF0AF0630E2964EBEF45
:1015D0000AF0EDEF0AF080EF0BF0020E3A6E000E0B
:1015E000296E80EF0BF0020E2B18D8B4FAEF0AF038
:1015F000FCEF0AF012EF0BF0000E3A6E040E3B18EF
:10160000D8A405EF0BF007EF0BF012EF0BF024500E
:10161000D8B40DEF0BF010EF0BF0010E11EF0BF043
:10162000000E246E310E296418EF0BF01AEF0BF048
:1016300080EF0BF0000E296E4EEF0BF0010E3524FB
:10164000156E166A000E1622000E186E180E176E12
:101650003FEC11F01550356E80EF0BF0010E362483
:10166000156E166A000E1622000E186E3C0E176ECE
:101670003FEC11F01550366E80EF0BF0010E372461
:10168000156E166A000E1622000E186E3C0E176EAE
:101690003FEC11F01550376E80EF0BF03B501B6E96
:1016A0001C6A1C50000AD8B458EF0BF080EF0BF006
:1016B0001B50010AD8B41EEF0BF0030AD8B42EEF6A
:1016C0000BF0010AD8B43EEF0BF080EF0BF03A506C
:1016D0001B6E1C6A1C50000AD8B471EF0BF080EF2F
:1016E0000BF01B50000AD8B471EF0AF0010AD8B40D
:1016F0007EEF0AF0030AD8B4F3EF0AF080EF0BF0A4
:10170000120071EF0CF0CA0E4DEC13F037C001F06F
:10171000026A000E046E0A0E036EDDEC10F001503A
:10172000300F73EC13F037C001F0026A000E046E44
:101730000A0E036E97EC11F00150300F73EC13F0AA
:1017400087EF0CF0C70E4DEC13F036C001F0026AC3
:10175000000E046E0A0E036EDDEC10F00150300F27
:1017600073EC13F036C001F0026A000E046E0A0E2C
:10177000036E97EC11F00150300F73EC13F087EF0C
:101780000CF0C40E4DEC13F035C001F0026A000EEF
:10179000046E0A0E036EDDEC10F00150300F73EC96
:1017A00013F035C001F0026A000E046E0A0E036EDB
:1017B00097EC11F00150300F73EC13F087EF0CF041
:1017C00009C00DF00AC00EF00E50000AD8B4EBEFBD
:1017D0000BF087EF0CF00D50010AD8B483EF0BF03B
:1017E000030AD8B4A2EF0BF0010AD8B4C1EF0BF092
:1017F00087EF0CF0CA0E4DEC13F033C001F0026A13
:10180000000E046E0A0E036EDDEC10F00150300F76
:1018100073EC13F033C001F0026A000E046E0A0E7E
:10182000036E97EC11F00150300F73EC13F087EF5B
:101830000CF0C70E4DEC13F032C001F0026A000E3E
:10184000046E0A0E036EDDEC10F00150300F73ECE5
:1018500013F032C001F0026A000E046E0A0E036E2D
:1018600097EC11F00150300F73EC13F087EF0CF090
:10187000C40E4DEC13F031C001F0026A000E046E8C
:101880000A0E036EDDEC10F00150300F73EC13F014
:1018900031C001F0026A000E046E0A0E036E97EC6E
:1018A00011F00150300F73EC13F087EF0CF009C00A
:1018B0000DF00AC00EF00E50000AD8B462EF0CF022
:1018C00087EF0CF00D50010AD8B4FAEF0BF0030AC1
:1018D000D8B419EF0CF0010AD8B438EF0CF087EF48
:1018E0000CF00BC00DF00CC00EF00E50000AD8B476
:1018F0007CEF0CF087EF0CF00D50010AD8B4E0EF4C
:101900000BF0030AD8B457EF0CF087EF0CF012007D
:10191000FAEC13F03FEF0DF02B04D8A492EF0CF08B
:1019200094EF0CF096EF0CF0010E3C6E3C04D8A442
:101930009CEF0CF09EEF0CF03FEF0DF0030E2B1818
:10194000D8A4A5EF0CF0A7EF0CF03FEF0DF0010EBF
:101950003B6E010E216E000E3C6E3FEF0DF02B042E
:10196000D8A4B5EF0CF0B7EF0CF0B9EF0CF0010E06
:101970003C6E3C04D8A4BFEF0CF0C1EF0CF0D0EFEC
:101980000CF0030E2B18D8A4C8EF0CF0CAEF0CF023
:10199000D0EF0CF0020E3B6E010E216E000E3C6E7D
:1019A0006FEC0AF03FEF0DF02B04D8A4DAEF0CF047
:1019B000DCEF0CF0DEEF0CF0010E3C6E3C04D8A422
:1019C000E4EF0CF0E6EF0CF0D0EF0CF0030E2B1868
:1019D000D8A4EDEF0CF0EFEF0CF0D0EF0CF0030E0D
:1019E0003B6E010E216E000E3C6ED0EF0CF02B040E
:1019F000D8A4FDEF0CF0FFEF0CF001EF0DF0010E9D
:101A00003C6E3C04D8A407EF0DF009EF0DF0D0EFC9
:101A10000CF0030E2B18D8A410EF0DF012EF0DF000
:101A2000D0EF0CF0040E3B6E010E216E000E3C6EEA
:101A3000D0EF0CF02B04D8A420EF0DF022EF0DF026
:101A400024EF0DF0010E3C6E3C04D8A42AEF0DF0FB
:101A50002CEF0DF0D0EF0CF0030E2B18D8A433EFC1
:101A60000DF035EF0DF0D0EF0CF0000E3B6E010ED7
:101A7000216E000E246E000E3C6ED0EF0CF03B5039
:101A80001F6E206A2050000AD8B449EF0DF03FEFD6
:101A90000DF01F50000AD8B48CEF0CF0010AD8B436
:101AA000AFEF0CF0030AD8B4D4EF0CF0010AD8B4AD
:101AB000F7EF0CF0070AD8B41AEF0DF03FEF0DF076
:101AC00007EF00F0282A2104D8A469EF0DF06BEF8E
:101AD0000DF088EF0DF0040E3B18D8B472EF0DF046
:101AE00074EF0DF082EF0DF03B500508096E000E0B
:101AF000D8A0E82A00080A6E000E0C6E010E0B6ECC
:101B000081EC0BF04EEC09F0000E216E2EEF0EF082
:101B1000180E28648EEF0DF090EF0DF0DBEF0DF056
:101B20002704D8A496EF0DF098EF0DF0DBEF0DF041
:101B3000BEEF0DF0000E0A6E010E096E000E0C6E67
:101B4000020E0B6E2FEC0EF0D7EF0DF0000E0A6EAA
:101B5000020E096E000E0C6E020E0B6E2FEC0EF0D4
:101B6000D7EF0DF0000E0A6E030E096E000E0C6E1C
:101B7000020E0B6E2FEC0EF0D7EF0DF03B500F6EF8
:101B8000106A1050000AD8B4C8EF0DF0D7EF0DF06E
:101B90000F50010AD8B49AEF0DF0030AD8B4A6EF9B
:101BA0000DF0010AD8B4B2EF0DF0D7EF0DF0000E32
:101BB000276E000E286E180E2864E1EF0DF0E3EF9B
:101BC0000DF02EEF0EF02750D8A4E9EF0DF0EBEF5B
:101BD0000DF02EEF0EF011EF0EF0000E0A6E010E5A
:101BE000096E000E0C6E010E0B6E2FEC0EF02AEF3C
:101BF0000EF0000E0A6E020E096E000E0C6E010E43
:101C00000B6E2FEC0EF02AEF0EF0000E0A6E030E94
:101C1000096E000E0C6E010E0B6E2FEC0EF02AEF0B
:101C20000EF03B500F6E106A1050000AD8B41BEF34
:101C30000EF02AEF0EF00F50010AD8B4EDEF0DF0C0
:101C4000030AD8B4F9EF0DF0010AD8B405EF0EF08D
:101C50002AEF0EF0010E276E000E286E1200CAEF5A
:101C60000EF00B040C10D8A438EF0EF03AEF0EF083
:101C700059EF0EF0C40E4DEC13F035C001F0026ABE
:101C8000000E046E0A0E036EDDEC10F00150300FF2
:101C900073EC13F035C001F0026A000E046E0A0EF8
:101CA000036E97EC11F00150300F73EC13F0E4EF7A
:101CB0000EF0C40E4DEC13F0560E076E100E086EAB
:101CC000DBEC13F0E4EF0EF00B040C10D8A46BEF78
:101CD0000EF06DEF0EF08CEF0EF0C70E4DEC13F022
:101CE00036C001F0026A000E046E0A0E036EDDECCF
:101CF00010F00150300F73EC13F036C001F0026A9F
:101D0000000E046E0A0E036E97EC11F00150300FB6
:101D100073EC13F0E4EF0EF0C70E4DEC13F0560E1B
:101D2000076E100E086EDBEC13F0E4EF0EF00B0400
:101D30000C10D8A49EEF0EF0A0EF0EF0BFEF0EF047
:101D4000CA0E4DEC13F037C001F0026A000E046EAB
:101D50000A0E036EDDEC10F00150300F73EC13F03F
:101D600037C001F0026A000E046E0A0E036E97EC93
:101D700011F00150300F73EC13F0E4EF0EF0CA0EC7
:101D80004DEC13F0560E076E100E086EDBEC13F0E0
:101D9000E4EF0EF009C00DF00AC00EF00E50000A7C
:101DA000D8B4D5EF0EF0E4EF0EF00D50010AD8B420
:101DB00031EF0EF0030AD8B464EF0EF0010AD8B484
:101DC00097EF0EF0E4EF0EF01200382A630E38643D
:101DD000ECEF0EF0EEEF0EF01CEF0FF0000E386E91
:101DE0003728376E3C0E3718D8B4F9EF0EF0FCEFF9
:101DF0000EF0010EFDEF0EF0000E266E2650D8B448
:101E000004EF0FF006EF0FF008EF0FF0000E376E43
:101E1000040E0F181010D8B410EF0FF012EF0FF0DF
:101E20001CEF0FF0000E0A6E010E096E000E0C6E14
:101E3000010E0B6E81EC0BF02604D8A422EF0FF0FC
:101E400024EF0FF052EF0FF0000E266E3628366E9C
:101E50003C0E3618D8B42FEF0FF032EF0FF0010E12
:101E600033EF0FF0000E256E2550D8B43AEF0FF087
:101E70003CEF0FF03EEF0FF0000E366E040E0F1821
:101E80001010D8B446EF0FF048EF0FF052EF0FF0FC
:101E9000000E0A6E020E096E000E0C6E010E0B6E25
:101EA00081EC0BF02504D8A458EF0FF05AEF0FF097
:101EB0007EEF0FF0000E256E010E3524016E026AD2
:101EC000000E0222000E046E180E036E97EC11F045
:101ED0000150356E040E0F181010D8B472EF0FF0C9
:101EE00074EF0FF07EEF0FF0000E0A6E030E096E16
:101EF000000E0C6E010E0B6E81EC0BF01200060052
:101F0000F6CF11F0F7CF12F0F8CF13F0F5CF14F0B1
:101F1000000E956EF2AA8FEF0FF091EF0FF09DEF8C
:101F20000FF0F2A496EF0FF098EF0FF09DEF0FF087
:101F3000EF0ED66EF294392A342A040E3B18D8A438
:101F4000A4EF0FF0A6EF0FF0BAEF0FF0040E346419
:101F5000ACEF0FF0AEEF0FF0BAEF0FF02404D8A4FF
:101F6000B4EF0FF0B6EF0FF0B8EF0FF016EC10F083
:101F7000000E346E090E3964C0EF0FF0C2EF0FF09F
:101F8000E5EF0FF0000E396ED9EC12F001C003F04E
:101F900002C004F0B1EC12F001C005F002C006F07E
:101FA00099EC13F003502B6E2C50D8B4DAEF0FF0ED
:101FB000DCEF0FF0E1EF0FF03BC00FF0106AE5EC43
:101FC0000EF062EC0DF0010E2A6E2A04D8A4EBEF9D
:101FD0000FF0EDEF0FF0F8EF0FF03A04D8A4F3EFA5
:101FE0000FF0F5EF0FF0F8EF0FF0292A000E2A6E30
:101FF0002A04D8A4FEEF0FF000EF10F00CEF10F061
:10200000020E3A18D8A407EF10F009EF10F00CEF09
:1020100010F0292A000E2A6E14C0F5FF13C0F8FF35
:1020200012C0F7FF11C0F6FF3D921100332A8C2A2F
:10203000640E3318D8B41FEF10F022EF10F0010E29
:1020400023EF10F0000E236E2350D8B42AEF10F0C7
:102050002CEF10F02EEF10F0000E336E000E0A6E13
:10206000010E096E000E0C6E020E0B6E81EC0BF071
:102070002350D8B43EEF10F040EF10F064EF10F0B2
:10208000000E236E3228326E3C0E3218D8B44BEF5D
:1020900010F04EEF10F0010E4FEF10F0000E226E18
:1020A0002250D8B456EF10F058EF10F05AEF10F05D
:1020B000000E326E000E0A6E020E096E000E0C6EDD
:1020C000020E0B6E81EC0BF02204D8A46AEF10F024
:1020D0006CEF10F07AEF10F0000E226E3628226EB0
:1020E000000E0A6E030E096E000E0C6E020E0B6ED1
:1020F00081EC0BF01200000E1A6E18BE84EF10F087
:1021000082EF10F08AEF10F0176C181ED8B0182A62
:10211000010E1A6E16BE91EF10F08FEF10F097EFD0
:1021200010F0156C161ED8B0162A010E1A1A000EE1
:102130001C6E000E1B6E17501810D8B4A2EF10F0D2
:10214000A4EF10F0CCEF10F0010E196EACEF10F010
:10215000D89017361836192A18AEB1EF10F0B3EF31
:1021600010F0A8EF10F0D8901B361C361750155CF5
:1021700018501658D8A0BFEF10F0C1EF10F0C6EFFE
:1021800010F01750155E1850165A1B80D890183250
:102190001732192EB3EF10F01A50D8B4D2EF10F056
:1021A000D4EF10F0D8EF10F01B6C1C1ED8B01C2A16
:1021B0001BC015F01CC016F01200000E066E04BE07
:1021C000E6EF10F0E4EF10F0ECEF10F0036C041EFB
:1021D000D8B0042A010E066E02BEF3EF10F0F1EF44
:1021E00010F0F9EF10F0016C021ED8B0022A010EB7
:1021F000061A000E086E000E076E03500410D8B4C5
:1022000004EF11F006EF11F02EEF11F0010E056E44
:102210000EEF11F0D89003360436052A04AE13EF02
:1022200011F015EF11F00AEF11F0D89007360836CB
:102230000350015C04500258D8A021EF11F023EFA5
:1022400011F028EF11F00350015E0450025A07808C
:10225000D89004320332052E15EF11F00650D8B491
:1022600034EF11F036EF11F03AEF11F0076C081E61
:10227000D8B0082A07C001F008C002F01200000E12
:102280001A6E16BE48EF11F046EF11F04EEF11F046
:10229000156C161ED8B0162A010E1A6E18BE55EF10
:1022A00011F053EF11F059EF11F0176C181ED8B060
:1022B000182A17501810D8B460EF11F062EF11F01F
:1022C00086EF11F0010E196E6AEF11F0D8901736F3
:1022D0001836192A18AE6FEF11F071EF11F066EF92
:1022E00011F01750155C18501658D8A07AEF11F05D
:1022F0007CEF11F080EF11F01750155E1850165A50
:10230000D89018321732192E71EF11F01A50D8B434
:102310008CEF11F08EEF11F092EF11F0156C161E8C
:10232000D8B0162A15C015F016C016F01200000E0F
:10233000066E02BEA0EF11F09EEF11F0A6EF11F0B5
:10234000016C021ED8B0022A010E066E04BEADEF6B
:1023500011F0ABEF11F0B1EF11F0036C041ED8B027
:10236000042A03500410D8B4B8EF11F0BAEF11F0FA
:10237000DEEF11F0010E056EC2EF11F0D8900336BA
:102380000436052A04AEC7EF11F0C9EF11F0BEEF15
:1023900011F00350015C04500258D8A0D2EF11F0A4
:1023A000D4EF11F0D8EF11F00350015E0450025A3F
:1023B000D89004320332052EC9EF11F00650D8B47C
:1023C000E4EF11F0E6EF11F0EAEF11F0016C021EFC
:1023D000D8B0022A01C001F002C002F01200156E4E
:1023E00015C017F0000E166E15AEF9EF11F0FBEFE9
:1023F00011F0FEEF11F08B8AFFEF11F08B9A8BA892
:1024000004EF12F006EF12F00AEF12F0D880173640
:102410000DEF12F017501724176E8B8600F000F0A6
:1024200000F000F000F000F08B96D8901536162AD8
:10243000070E16641EEF12F020EF12F0F4EF11F009
:102440001200016E01C003F0000E026E01AE2BEF10
:1024500012F02DEF12F030EF12F08B8A31EF12F004
:102460008B9A8BA836EF12F038EF12F03CEF12F097
:10247000D88003363FEF12F003500324036E8B869F
:1024800000F000F000F000F000F000F08B96D89023
:102490000136022A070E026450EF12F052EF12F0DA
:1024A00026EF12F0120059EC14F0979C8E9C030E4C
:1024B0001B6E980EE82EFED71B2EFCD78E8C000EBE
:1024C00025EC14F0010E25EC14F0000E186E120E1F
:1024D00032EC14F0270E1B6EF50EE82EFED71B2EE5
:1024E000FCD700F0320E27EC13F03C0E27EC13F073
:1024F0000C0E27EC13F0010E27EC13F0060E27EC60
:1025000013F0120062EC14F0979C8E9C030E076E81
:10251000980EE82EFED7072EFCD78E8C000E3FECCF
:1025200014F0010E3FEC14F0000E046E120E4CEC91
:1025300014F0270E076EF50EE82EFED7072EFCD7F7
:1025400000F0320E4DEC13F03C0E4DEC13F00C0E7F
:102550004DEC13F0010E4DEC13F0060E4DEC13F0A4
:1025600012002DC02EF0000E81B0010E2D6E2D50E8
:102570002E18D8A4BEEF12F0C0EF12F0D4EF12F074
:102580002D50D8A4C6EF12F0C8EF12F0CEEF12F023
:10259000000E026E010E016ED8EF12F0000E026EF8
:1025A000020E016ED8EF12F0000E026E000E016EE8
:1025B00012002FC030F0000E80BA010E2F6E2F5087
:1025C0003018D8A4E6EF12F0E8EF12F0FCEF12F0AA
:1025D0002F50D8A4EEEF12F0F0EF12F0F6EF12F059
:1025E000000E026E010E016E00EF13F0000E026E7F
:1025F000020E016E00EF13F0000E026E000E016E6F
:1026000012001A6E210EE82EFED700F0800E186E12
:10261000120E32EC14F0060EE82EFED700D01AC0CF
:1026200018F0130E32EC14F0060EE82EFED700D090
:10263000C00E186E120E32EC14F0060EE82EFED705
:1026400000D0000E186E120E32EC14F012001A6E4A
:10265000210EE82EFED700F0000E186E120E32EC9E
:1026600014F0060EE82EFED700D01AC018F0130E94
:1026700032EC14F0060EE82EFED700D0400E186E95
:10268000120E32EC14F0060EE82EFED700D0000E2B
:10269000186E120E32EC14F01200066E210EE82EA7
:1026A000FED700F0000E046E120E4CEC14F0060E75
:1026B000E82EFED700D006C004F0130E4CEC14F048
:1026C000060EE82EFED700D0400E046E120E4CEC23
:1026D00014F0060EE82EFED700D0000E046E120E87
:1026E0004CEC14F01200066E210EE82EFED700F01E
:1026F000800E046E120E4CEC14F0060EE82EFED77F
:1027000000D006C004F0130E4CEC14F0060EE82EB8
:10271000FED700D0C00E046E120E4CEC14F0060E64
:10272000E82EFED700D0000E046E120E4CEC14F012
:10273000120003040410D8A4A0EF13F0A2EF13F0CA
:10274000A8EF13F0000E046E010E036EBBEF13F042
:1027500005040610D8A4AFEF13F0B1EF13F0B7EFF4
:1027600013F0000E046E020E036EBBEF13F0000EAA
:10277000046E030E036E1200CAEF13F01BC0F6FFC7
:102780001CC0F7FF000EF86E0800F55001EC13F0C6
:102790001B4A1C2A1BC0F6FF1CC0F7FF000EF86E78
:1027A0000800F5500009D8A4D8EF13F0DAEF13F0C1
:1027B000BEEF13F01200E9EF13F007C0F6FF08C0F8
:1027C000F7FF000EF86E0800F55073EC13F0074A9F
:1027D000082A07C0F6FF08C0F7FF000EF86E0800D1
:1027E000F5500009D8A4F7EF13F0F9EF13F0DDEF7F
:1027F00013F01200700ED36EC60ED56EF28AF294EC
:10280000F28E928A9380000E956E000E836E0F0EEC
:10281000C16E000ED66EEF0ED66ED7682DEC08F0A6
:102820001200D60EF66E280EF76E000EF86E090036
:10283000F5CF3CF000EE21F01B0EEE6AE806FDE15C
:102840003D903D92000188EF0CF0186E8994400E87
:10285000EFEC11F01850EFEC11F0000EEFEC11F06E
:1028600089841200196E8994400EEFEC11F0195012
:10287000EFEC11F01850EFEC11F089841200046EA7
:102880008994400E21EC12F0045021EC12F0000E5D
:1028900021EC12F089841200056E8994400E21EC1F
:1028A00012F0055021EC12F0045021EC12F0898452
:1028B000120092949488949A949689848B888B9A27
:1028C0008B96120092949488949A949689848B881B
:0728D0008B9A8B96120003A6
:020000040020DA
:08000000FFFFFFFFFFFFFFFF00
:020000040030CA
:0E000000FF09191EF38381FFFFC0FFE0FF40E0
:00000001FF
