:020000040000FA
:0400000007EF00F016
:1000080028828FED01F06FEF02F08AEC02F074EFB6
:1000180001F0010E196E74EF01F0020E196E74EF03
:1000280001F0000E196E20EE09F0070EDE6AE806F0
:10003800FDE220EE01F0070EDE6AE806FDE274EF4D
:1000480001F01450206E216A2150000AD8B42FEF15
:1000580000F074EF01F02050010AD8B40DEF00F061
:10006800030AD8B411EF00F0010AD8B415EF00F074
:1000780074EF01F074EF01F0030E1418D8B447EFD1
:1000880000F049EF00F052EF00F0020E1418D8A467
:1000980050EF00F052EF00F0BDEF00F02350D8A46D
:1000A80058EF00F05AEF00F05DEF00F016C08CFF3B
:1000B800162A000E196E000E236E20EE09F0070EA8
:1000C800DE6AE806FDE274EF01F010500F100E1022
:1000D8000D100C100B100A1009E1650E095CD8A070
:1000E80078EF00F07AEF00F03EEF00F010500F10BC
:1000F8000E100D100C100B1009E12C0E095C010EEE
:100108000A58D8B08AEF00F08CEF00F03EEF00F00C
:10011800010E236E74EF01F010500F100E100D1029
:100128000C100B100BE12D0E095C010E0A58D8A01B
:10013800A0EF00F0A2EF00F0A4EF00F0020E236E93
:10014800320E1764AAEF00F0ACEF00F03EEF00F0BB
:1001580016C08CFF162A000E176E74EF01F00A0EF7
:100168001764B9EF00F0BBEF00F03EEF00F0ACEF22
:1001780000F02350206E216A2150000AD8B4C7EF3E
:1001880000F074EF01F02050000AD8B469EF00F0D5
:10019800010AD8B490EF00F0030AD8B4B3EF00F026
:1001A80074EF01F0030E1418D8A4DDEF00F0DFEFB0
:1001B80000F0F0EF00F02350D8A4E5EF00F0E7EFEF
:1001C80000F0EAEF00F016C08CFF1606000E196E5C
:1001D800000E226E1DEF00F01404D8A4F6EF00F014
:1001E800F8EF00F05BEF01F0010E196E20EE01F060
:1001F800070EDE6AE806FDE2000E226E74EF01F0DB
:10020800085007100610051004100310021009E129
:10021800650E015CD8A013EF01F015EF01F03EEF79
:1002280000F008500710061005100410031009E12B
:100238002C0E015C010E0258D8B025EF01F027EF13
:1002480001F03EEF00F0010E226E74EF01F0320E65
:10025800176431EF01F033EF01F038EF01F016C009
:100268008CFF1606000E176E0850071006100510B2
:10027800041003100BE12D0E015C010E0258D8A0EA
:1002880048EF01F04AEF01F03EEF00F0020E226E57
:1002980074EF01F00A0E176454EF01F056EF01F005
:1002A8003EEF00F016C08CFF1606AFEF00F02250AC
:1002B800206E216A2150000AD8B465EF01F074EF6E
:1002C80001F02050000AD8B404EF01F0010AD8B4B4
:1002D8002BEF01F0030AD8B44EEF01F074EF01F0F0
:1002E8001950206E216A2150000AD8B47EEF01F01F
:1002F80074EF01F02050000AD8B425EF00F0010A8D
:10030800D8B440EF00F0030AD8B4D6EF00F074EF89
:1003180001F007EF00F00600F2A495EF01F097EF67
:1003280001F0B6EF01F0F2AA9CEF01F09EEF01F0A8
:10033800B6EF01F0F60ED66ED76824EC02F01AC0BC
:100348001CF01BC01DF0FCEC01F01AC01EF01BC015
:100358001FF04CEC02F01C50146E010E156E010ECD
:10036800136EF2941904D8A4BCEF01F0BEEF01F0AB
:10037800D2EF01F01504D8A4C4EF01F0C6EF01F0E4
:10038800D2EF01F0010E0926000E0A220B220C22E0
:100398000D220E220F221022000E156E020E1918C1
:1003A800D8A4D9EF01F0DBEF01F0EFEF01F015046D
:1003B800D8A4E1EF01F0E3EF01F0EFEF01F0010E57
:1003C8000126000E02220322042205220622072209
:1003D8000822000E156E1304D8A4F5EF01F0F7EF0C
:1003E80001F0FAEF01F0172A000E136E289211009F
:1003F80024C025F0000E81B0010E246E245025186B
:10040800D8A409EF02F00BEF02F01FEF02F024501E
:10041800D8A411EF02F013EF02F019EF02F0000E6A
:100428001B6E010E1A6E23EF02F0000E1B6E020EF9
:100438001A6E23EF02F0000E1B6E000E1A6E1200E9
:1004480026C027F0000E80BA010E266E2650271807
:10045800D8A431EF02F033EF02F047EF02F0265054
:10046800D8A439EF02F03BEF02F041EF02F0000EA2
:100478001B6E010E1A6E4BEF02F0000E1B6E020E81
:100488001A6E4BEF02F0000E1B6E000E1A6E120071
:100498001C041D10D8A453EF02F055EF02F05BEFD7
:1004A80002F0000E1D6E010E1C6E6EEF02F01E04AF
:1004B8001F10D8A462EF02F064EF02F06AEF02F0B6
:1004C800000E1D6E020E1C6E6EEF02F0000E1D6E09
:1004D800030E1C6E12003A0EF66E050EF76E000E35
:1004E800F86E00EE24F010EE04F00900F5CFEEFFF0
:1004F800E550E150FAE100EE01F0190EEE6AE80667
:10050800FDE128902892000109EF00F0270ED36E34
:10051800C50ED56EF28AF294F28E928A9380000EFE
:10052800956E000E836E0F0EC16EF60ED66ED768EE
:06053800120001010101A7
:020000040020DA
:08000000FFFFFFFFFFFFFFFF00
:020000040030CA
:0E000000FF09191EF38381FFFFC0FFE0FF40E0
:00000001FF
