:020000040000FA
:0400000007EF00F016
:1000080052829FED0BF0D5EF0BF00001BEBF16EF4B
:1000180000F0BE5109E10A0EBD5DD8A016EF00F050
:1000280018EF00F022EF00F0000E666F000E676F09
:10003800000E686F000E696F45EF04F0BD4BBE2BD4
:10004800000E966F000E956F95C060F096C061F037
:10005800000E636F170E626F01EC0CF00B0E0001BF
:100068006025D96E010E6121DA6EDE50DE10DE10D9
:10007800DE10DE10DE10DE10DE10D8A446EF00F031
:1000880048EF00F04EEF00F095C0BFF096C0C0F00A
:1000980052EF00F0954B962B28EF00F0BFC060F0B0
:1000A800C0C061F0000E636F170E626F01EC0CF0B8
:1000B800000E00016025D96E010E6121DA6E76C04E
:1000C800DEFF77C0DEFF78C0DEFFBFC060F0C0C0D3
:1000D80061F0000E636F170E626F01EC0CF0130EE7
:1000E80000016025D96E010E6121DA6E79C0DEFF4C
:1000F8007AC0DDFFBFC060F0C0C061F0000E636F62
:10010800170E626F01EC0CF00B0E00016025D96E22
:10011800010E6121DA6E6EC0DEFF6FC0DEFF70C0B7
:10012800DEFF71C0DEFF72C0DEFF73C0DEFF74C089
:10013800DEFF75C0DEFFBF51C011D8A4A6EF00F0E6
:10014800A8EF00F0EDEF00F0BFC060F0C0C061F0B4
:10015800000E636F170E626F01EC0CF0150E0001B4
:100168006025D96E010E6121DA6EFF0EDE6EFF0E7C
:10017800DD6E000EBC6F000EBB6FBFC060F0C0C06C
:1001880061F0000E636F170E626F01EC0CF0030E46
:1001980000016025D96E010E6121DA6E66C0DEFFAE
:1001A80067C0DEFF68C0DEFF69C0DEFF6AC0DEFF31
:1001B8006BC0DEFF6CC0DEFF6DC0DEFFBFC066F047
:1001C800C0C067F0000E67BFFF0E686F696F45EF2C
:1001D80004F0BBC060F0BCC061F0000E636F170E86
:1001E800626F01EC0CF0030E00016025D96E010E60
:1001F8006121DA6E6651DE5C6751DE586851DE585F
:100208006951DE586A51DE586B51DE586C51DE5820
:100218006D51DE58D8A013EF01F015EF01F0ABEFE8
:1002280001F0BFC060F0C0C061F0000E636F170E30
:10023800626F01EC0CF0150E00016025D96E010EFD
:100248006121DA6EBBC0DEFFBCC0DDFFBBC060F061
:10025800BCC061F0000E636F170E626F01EC0CF00A
:10026800030E00016025D96E010E6121DA6EDECF22
:100278007BF0DECF7CF0DECF7DF0DECF7EF0DECF10
:100288007FF0DECF80F0DECF81F0DECF82F06651E6
:100298007B5D836F67517C59846F68517D59856F89
:1002A80069517E59866F6A517F59876F6B518059A2
:1002B800886F6C518159896F6D5182598A6FBBC0A3
:1002C80060F0BCC061F0000E636F170E626F01EC46
:1002D8000CF0030E00016025D96E010E6121DA6E63
:1002E80083C0DEFF84C0DEFF85C0DEFF86C0DEFF80
:1002F80087C0DEFF88C0DEFF89C0DEFF8AC0DEFF60
:10030800BFC060F0C0C061F0000E636F170E626F6F
:1003180001EC0CF0030E00016025D96E010E61217D
:10032800DA6E66C0DEFF67C0DEFF68C0DEFF69C048
:10033800DEFF6AC0DEFF6BC0DEFF6CC0DEFF6DC093
:10034800DEFFBFC0BBF0C0C0BCF0E2EF00F0BBC036
:10035800A1F0BCC0A2F0BBC060F0BCC061F0000E50
:10036800636F170E626F01EC0CF0030E000160253D
:10037800D96E010E6121DA6EDECF7BF0DECF7CF024
:10038800DECF7DF0DECF7EF0DECF7FF0DECF80F0F7
:10039800DECF81F0DECF82F07BC099F07CC09AF08E
:1003A8007DC09BF07EC09CF07FC09DF080C09EF019
:1003B80081C09FF082C0A0F0A1C060F0A2C061F02F
:1003C800000E636F170E626F01EC0CF0150E000142
:1003D8006025D96E010E6121DA6EDE2806E1DE287D
:1003E800D8A4F9EF01F0FBEF01F060EF02F0A1C033
:1003F80060F0A2C061F0000E636F170E626F01EC2F
:100408000CF0150E00016025D96E010E6121DA6E1F
:10041800BFC0DEFFC0C0DDFFBFC060F0C0C061F07C
:10042800000E636F170E626F01EC0CF0150E0001E1
:100438006025D96E010E6121DA6EFF0EDE6EFF0EA9
:10044800DD6E9951665D7B6F9A5167597C6F9B5140
:1004580068597D6F9C5169597E6F9D516A597F6FAC
:100468009E516B59806F9F516C59816FA0516D5986
:10047800826FBFC060F0C0C061F0000E636F170EDE
:10048800626F01EC0CF0030E00016025D96E010EBD
:100498006121DA6E7BC0DEFF7CC0DEFF7DC0DEFF3F
:1004A8007EC0DEFF7FC0DEFF80C0DEFF81C0DEFFD2
:1004B80082C0DEFFE2EF00F0A1C060F0A2C061F0F0
:1004C800000E636F170E626F01EC0CF0150E000141
:1004D8006025D96E010E6121DA6EDECF97F0DDCF8F
:1004E80098F097C060F098C061F0000E636F170E27
:1004F800626F01EC0CF0030E00016025D96E010E4D
:100508006121DA6EDECF7BF0DECF7CF0DECF7DF0CE
:10051800DECF7EF0DECF7FF0DECF80F0DECF81F061
:10052800DECF82F099517B25996F9A517C219A6F81
:100538009B517D219B6F9C517E219C6F9D517F21FA
:100548009D6F9E5180219E6F9F5181219F6FA05169
:100558008221A06F6651995D67519A5968519B59DC
:1005680069519C596A519D596B519E596C519F59BB
:100578006D51A059D8A0C3EF02F0C5EF02F02EEFDD
:1005880004F0A1C060F0A2C061F0000E636F170E06
:10059800626F01EC0CF0150E00016025D96E010E9A
:1005A8006121DA6EDECF97F0DDCF98F097C060F06A
:1005B80098C061F0000E636F170E626F01EC0CF0CB
:1005C800030E00016025D96E010E6121DA6EDECFBF
:1005D8007BF0DECF7CF0DECF7DF0DECF7EF0DECFAD
:1005E8007FF0DECF80F0DECF81F0DECF82F07B516E
:1005F800995D996F7C519A599A6F7D519B599B6F60
:100608007E519C599C6F7F519D599D6F80519E5979
:100618009E6F81519F599F6F8251A059A06F995128
:10062800665D7B6F9A5167597C6F9B5168597D6FE6
:100638009C5169597E6F9D516A597F6F9E516B59C4
:10064800806F9F516C59816FA0516D59826FBFC0E7
:1006580060F0C0C061F0000E636F170E626F01ECAE
:100668000CF0030E00016025D96E010E6121DA6ECF
:100678007BC0DEFF7CC0DEFF7DC0DEFF7EC0DEFF0C
:100688007FC0DEFF80C0DEFF81C0DEFF82C0DEFFEC
:10069800A1C060F0A2C061F0000E636F170E626F18
:1006A80001EC0CF0150E00016025D96E010E6121D8
:1006B800DA6EBFC060F0C0C061F0000E636F170E45
:1006C800626F01EC0CF0150E00016025E16E010E61
:1006D8006121E26EDECFE6FFDDCFE5FFBFC060F04F
:1006E800C0C061F0000E636F170E626F01EC0CF072
:1006F800150E00016025D96E010E6121DA6EDECF7C
:1007080097F0DDCF98F0BFC060F0C0C061F0000E78
:10071800636F170E626F01EC0CF0150E0001602577
:10072800D96E010E6121DA6EDECF93F0DDCF94F041
:10073800BFC060F0C0C061F0000E636F170E626F3B
:1007480001EC0CF0030E00016025D96E010E612149
:10075800DA6EDECF7BF0DECF7CF0DECF7DF0DECF51
:100768007EF0DECF7FF0DECF80F0DECF81F0DECF0F
:1007780082F097C060F098C061F0000E636F170EAA
:10078800626F01EC0CF0030E00016025D96E010EBA
:100798006121DA6EDECF83F0DECF84F0DECF85F024
:1007A800DECF86F0DECF87F0DECF88F0DECF89F0AF
:1007B800DECF8AF07B51835D8B6F7C5184598C6FBF
:1007C8007D5185598D6F7E5186598E6F7F5187591E
:1007D8008F6F80518859906F81518959916F8251DB
:1007E8008A59926F93C060F094C061F0000E636FF5
:1007F800170E626F01EC0CF0030E00016025D96E34
:10080800010E6121DA6E8BC0DEFF8CC0DEFF8DC069
:10081800DEFF8EC0DEFF8FC0DEFF90C0DEFF91C01E
:10082800DEFF92C0DEFFA1C060F0A2C061F0000E42
:10083800636F170E626F01EC0CF0150E0001602556
:10084800D96E010E6121DA6EBFC0DEFFC0C0DDFFC8
:10085800E2EF00F0A1C060F0A2C061F0000E636F8B
:10086800170E626F01EC0CF0150E00016025D96EB1
:10087800010E6121DA6EDECFA1F0DDCFA2F0E0EF4C
:1008880001F01200BBC02DF0BCC02EF007C001F073
:1008980008C002F0000E046E170E036E15EC0CF083
:1008A8000B0E0124D96E010E0220DA6E2DC001F064
:1008B8002EC002F0000E046E170E036E15EC0CF03D
:1008C800030E0124E16E010E0220E26EDE50E65CAA
:1008D800DE50E658DE50E658DE50E658DE50E65860
:1008E800DE50E658DE50E658DE50E658D8A07FEFD6
:1008F80004F081EF04F053EF05F007C001F008C0E1
:1009080002F0000E046E170E036E15EC0CF0150EB7
:100918000124D96E010E0220DA6E2DC0DEFF2EC032
:10092800DDFF07C001F008C002F0000E046E170ECC
:10093800036E15EC0CF00B0E0124D96E010E02208B
:10094800DA6EDECF09F0DECF0AF0DECF0BF0DECFB5
:100958000CF0DECF0DF0DECF0EF0DECF0FF0DECFE5
:1009680010F007C001F008C002F0000E046E170E68
:10097800036E15EC0CF0030E0124D96E010E022053
:10098800DA6E09C0DEFF0AC0DEFF0BC0DEFF0CC056
:10099800DEFF0DC0DEFF0EC0DEFF0FC0DEFF10C0A1
:1009A800DEFF07C001F008C002F0000E046E170E4B
:1009B800036E15EC0CF0030E0124D96E010E022013
:1009C800DA6EDECF09F0DECF0AF0DECF0BF0DECF35
:1009D8000CF0DECF0DF0DECF0EF0DECF0FF0DECF65
:1009E80010F02DC001F02EC002F0000E046E170E9C
:1009F800036E15EC0CF0030E0124D96E010E0220D3
:100A0800DA6EDECF11F0DECF12F0DECF13F0DECFDC
:100A180014F0DECF15F0DECF16F0DECF17F0DECF04
:100A280018F00950115C196E0A5012581A6E0B50C2
:100A380013581B6E0C5014581C6E0D5015581D6E13
:100A48000E5016581E6E0F5017581F6E105018581B
:100A5800206E2DC001F02EC002F0000E046E170E9D
:100A6800036E15EC0CF0030E0124D96E010E022062
:100A7800DA6E19C0DEFF1AC0DEFF1BC0DEFF1CC025
:100A8800DEFF1DC0DEFF1EC0DEFF1FC0DEFF20C070
:100A9800DEFF07C0BBF008C0BCF026EF08F0BBC003
:100AA80001F0BCC002F0000E046E170E036E15ECC8
:100AB8000CF0030E0124D96E010E0220DA6EDECF8F
:100AC80009F0DECF0AF0DECF0BF0DECF0CF0DECF80
:100AD8000DF0DECF0EF0DECF0FF0DECF10F009C044
:100AE80025F00AC026F00BC027F00CC028F00DC076
:100AF80029F00EC02AF00FC02BF010C02CF02DC02A
:100B080001F02EC002F0000E046E170E036E15ECF5
:100B18000CF0150E0124D96E010E0220DA6EDE28C3
:100B280006E1DE28D8A49BEF05F09DEF05F01FEF46
:100B380006F02DC001F02EC002F0000E046E170E54
:100B4800036E15EC0CF0150E0124D96E010E02206F
:100B5800DA6E07C0DEFF08C0DDFF07C001F008C07D
:100B680002F0000E046E170E036E15EC0CF0150E55
:100B78000124D96E010E0220DA6EFF0EDE6EFF0E22
:100B8800DD6E07C001F008C002F0000E046E170EFB
:100B9800036E15EC0CF00B0E0124D96E010E022029
:100BA800DA6EDECF09F0DECF0AF0DECF0BF0DECF53
:100BB8000CF0DECF0DF0DECF0EF0DECF0FF0DECF83
:100BC80010F02550095C116E26500A58126E2750F5
:100BD8000B58136E28500C58146E29500D58156E6A
:100BE8002A500E58166E2B500F58176E2C5010584E
:100BF800186E07C001F008C002F0000E046E170E50
:100C0800036E15EC0CF0030E0124D96E010E0220C0
:100C1800DA6E11C0DEFF12C0DEFF13C0DEFF14C0A3
:100C2800DEFF15C0DEFF16C0DEFF17C0DEFF18C0EE
:100C3800DEFF26EF08F02DC001F02EC002F0000EF6
:100C4800046E170E036E15EC0CF0150E0124D96E08
:100C5800010E0220DA6EDECF23F0DDCF24F023C0B0
:100C680001F024C002F0000E046E170E036E15EC9E
:100C78000CF0030E0124D96E010E0220DA6EDECFCD
:100C880009F0DECF0AF0DECF0BF0DECF0CF0DECFBE
:100C98000DF0DECF0EF0DECF0FF0DECF10F02550D6
:100CA8000924256E26500A20266E27500B20276E11
:100CB80028500C20286E29500D20296E2A500E200D
:100CC8002A6E2B500F202B6E2C5010202C6E07C034
:100CD80001F008C002F0000E046E170E036E15EC4A
:100CE8000CF00B0E0124D96E010E0220DA6EDE50D4
:100CF800255CDE502658DE502758DE502858DE5036
:100D08002958DE502A58DE502B58DE502C58D8A0CF
:100D180090EF06F092EF06F010EF08F02DC001F00A
:100D28002EC002F0000E046E170E036E15EC0CF0C8
:100D3800150E0124D96E010E0220DA6EDECF23F0E3
:100D4800DDCF24F023C001F024C002F0000E046EB1
:100D5800170E036E15EC0CF0030E0124D96E010E6C
:100D68000220DA6EDECF09F0DECF0AF0DECF0BF01C
:100D7800DECF0CF0DECF0DF0DECF0EF0DECF0FF0C1
:100D8800DECF10F00950255C256E0A502658266ED5
:100D98000B502758276E0C502858286E0D5029588C
:100DA800296E0E502A582A6E0F502B582B6E105051
:100DB8002C582C6E07C001F008C002F0000E046E1B
:100DC800170E036E15EC0CF00B0E0124D96E010EF4
:100DD8000220DA6EDECF09F0DECF0AF0DECF0BF0AC
:100DE800DECF0CF0DECF0DF0DECF0EF0DECF0FF051
:100DF800DECF10F02550095C116E26500A58126E8D
:100E080027500B58136E28500C58146E29500D5843
:100E1800156E2A500E58166E2B500F58176E2C5000
:100E28001058186E07C001F008C002F0000E046EDA
:100E3800170E036E15EC0CF0030E0124D96E010E8B
:100E48000220DA6E11C0DEFF12C0DEFF13C0DEFF23
:100E580014C0DEFF15C0DEFF16C0DEFF17C0DEFFC0
:100E680018C0DEFF2DC001F02EC002F0000E046E87
:100E7800170E036E15EC0CF0150E0124D96E010E39
:100E88000220DA6E07C001F008C002F0000E046EFE
:100E9800170E036E15EC0CF0150E0124E16E010E11
:100EA8000220E26EDECFE6FFDDCFE5FF2DC001F0C8
:100EB8002EC002F0000E046E170E036E15EC0CF037
:100EC800150E0124D96E010E0220DA6E07C0DEFF6E
:100ED80008C0DDFF07C001F008C002F0000E046E74
:100EE800170E036E15EC0CF0150E0124D96E010EC9
:100EF8000220DA6EDECF23F0DDCF24F007C001F048
:100F080008C002F0000E046E170E036E15EC0CF00C
:100F1800150E0124D96E010E0220DA6EDECF21F003
:100F2800DDCF22F007C001F008C002F0000E046E09
:100F3800170E036E15EC0CF0030E0124D96E010E8A
:100F48000220DA6EDECF09F0DECF0AF0DECF0BF03A
:100F5800DECF0CF0DECF0DF0DECF0EF0DECF0FF0DF
:100F6800DECF10F023C001F024C002F0000E046EA2
:100F7800170E036E15EC0CF0030E0124D96E010E4A
:100F88000220DA6EDECF11F0DECF12F0DECF13F0E2
:100F9800DECF14F0DECF15F0DECF16F0DECF17F07F
:100FA800DECF18F00950115C196E0A5012581A6EEB
:100FB8000B5013581B6E0C5014581C6E0D501558BE
:100FC8001D6E0E5016581E6E0F5017581F6E10507B
:100FD8001858206E21C001F022C002F0000E046EE5
:100FE800170E036E15EC0CF0030E0124D96E010EDA
:100FF8000220DA6E19C0DEFF1AC0DEFF1BC0DEFF5A
:101008001CC0DEFF1DC0DEFF1EC0DEFF1FC0DEFFEE
:1010180020C0DEFF26EF08F02DC001F02EC002F040
:10102800000E046E170E036E15EC0CF0150E01245D
:10103800D96E010E0220DA6EDECF2DF0DDCF2EF054
:1010480083EF05F01200E80E0001666F030E676F6C
:10105800000E686F000E696F000E6A6F000E6B6FEE
:10106800000E6C6F000E6D6FE80E6E6F030E6F6FE3
:10107800000E706F000E716F000E726F000E736FAE
:10108800000E746F000E756F440E766F160E776F34
:10109800000E786F000E796F000E7A6F09EC00F081
:1010A80066C0A3F067C0A4F068C0A5F069C0A6F048
:1010B800140E0001666F000E676F000E686F000E59
:1010C800696F000E6A6F000E6B6F000E6C6F000E7A
:1010D8006D6F140E6E6F000E6F6F000E706F000E46
:1010E800716F000E726F000E736F000E746F000E3A
:1010F800756F440E766F160E776F000E786F010EBF
:10110800796F000E7A6F09EC00F066C0A3F067C033
:10111800A4F068C0A5F069C0A6F0780E0001666F5B
:10112800000E676F000E686F000E696F000E6A6F21
:10113800000E6B6F000E6C6F000E6D6F780E6E6F89
:10114800000E6F6F000E706F000E716F000E726FE1
:10115800000E736F000E746F000E756F380E766F89
:10116800150E776F000E786F020E796F000E7A6F8A
:1011780009EC00F066C0A3F067C0A4F068C0A5F051
:1011880069C0A6F0780E0001666F000E676F000E4A
:10119800686F000E696F000E6A6F000E6B6F000EAD
:1011A8006C6F000E6D6F780E6E6F000E6F6F000E15
:1011B800706F000E716F000E726F000E736F000E6D
:1011C800746F000E756F380E766F150E776F000E00
:1011D800786F030E796F000E7A6F09EC00F066C025
:1011E800A3F067C0A4F068C0A5F069C0A6F02C0EF3
:1011F8000001666F010E676F000E686F000E696F61
:10120800000E6A6F000E6B6F000E6C6F000E6D6F34
:101218002C0E6E6F010E6F6F000E706F000E716FE7
:10122800000E726F000E736F000E746F000E756FF4
:10123800BE0E766F150E776F000E786F040E796FFD
:10124800000E7A6F09EC00F066C0A3F067C0A4F046
:1012580068C0A5F069C0A6F02C0E0001666F010EEB
:10126800676F000E686F000E696F000E6A6F000EE0
:101278006B6F000E6C6F000E6D6F2C0E6E6F010E93
:101288006F6F000E706F000E716F000E726F000EA0
:10129800736F000E746F000E756FBE0E766F150EAD
:1012A800776F000E786F050E796F000E7A6F09EC74
:1012B80000F066C0A3F067C0A4F068C0A5F069C0DC
:1012C800A6F01200BBC001F0BCC002F0000E046E14
:1012D800170E036E15EC0CF0030E0124D96E010EE7
:1012E8000220DA6EF60EDE24316EFF0EDE20326E3C
:1012F800FF0EDE20336EFF0EDE20346EFF0EDE2082
:10130800356EFF0EDE20366EFF0EDE20376EFF0EC6
:10131800DE20386EBBC001F0BCC002F0000E046EC7
:10132800170E036E15EC0CF0030E0124D96E010E96
:101338000220DA6E31C0DEFF32C0DEFF33C0DEFFCE
:1013480034C0DEFF35C0DEFF36C0DEFF37C0DEFF4B
:1013580038C0DEFF000E3C6E000E3B6EEBEF09F06E
:10136800BBC039F0BCC03AF0BBC001F0BCC002F051
:10137800000E046E170E036E15EC0CF0150E01240A
:10138800D96E010E0220DA6EDECFBBF0DDCFBCF0E5
:10139800010E3924316E000E3A20326ED8903B345B
:1013A800D96E3C34DA6EA70ED926000EDA2231C087
:1013B800DEFF32C0DDFF39C007F03AC008F046EC66
:1013C80004F0010E3B243B6E000E3C203C6EBBC07B
:1013D80001F0BCC002F0000E046E170E036E15EC8F
:1013E8000CF0030E0124D96E010E0220DA6EDE50D5
:1013F800DE10DE10DE10DE10DE10DE10DE10D8B4D7
:1014080008EF0AF00AEF0AF0B4EF09F0000E306EA8
:10141800010E2F6E1200000E00016D6F000E6C6F32
:1014280083EF0AF0D8906C35D96E6D35DA6EA70E59
:10143800D926000EDA22DECF60F0DDCF61F0000E93
:10144800636F170E626F01EC0CF0FC0E0001602553
:10145800D96E000E6121DA6EDECF66F0DDCF67F05F
:10146800D8906C35D96E6D35DA6EA70ED926000E78
:10147800DA22DECF60F0DDCF61F0000E636F170E69
:10148800626F01EC0CF0E90E00016025D96E000EC8
:101498006121DA6E02D85BEF0AF00500FA6EDE50C1
:1014A800FD6EDE50FE6EDE50FF6EFA501200D890D0
:1014B80000016C35D96E6D35DA6EA70ED926000E8F
:1014C800DA22DE04DE10D8A46CEF0AF06EEF0AF020
:1014D80070EF0AF0C14BC22BD8906C35D96E6D35C0
:1014E800DA6EA70ED926000EDA22000EDE6E000E86
:1014F800DD6E010E6C256C6F000E6D216D6FD8903E
:101508006C35D96E6D35DA6EA70ED926000EDA2243
:10151800010EDBBE9BEF0AF0010EDB5006E1DE0494
:10152800D8B099EF0AF09BEF0AF016EF0AF0120014
:10153800C7EF0AF08CB4A3EF0AF0A6EF0AF0010E89
:10154800A7EF0AF0000EFF0A686F684768478C50DB
:101558006819FB0B68198C6EDEEF0AF08CB6B7EFD2
:101568000AF0BAEF0AF0010EBBEF0AF0000EFF0A0C
:10157800686F6847684768478C506819F70B68199F
:101588008C6EDEEF0AF066C068F067C069F0000193
:101598006951000AD8B4D3EF0AF0DEEF0AF06851B7
:1015A800020AD8B49EEF0AF0010AD8B4B2EF0AF0E2
:1015B800DEEF0AF012000AEF0BF08CBCE6EF0AF03F
:1015C800E9EF0AF0010EEAEF0AF0000EFF0A686F71
:1015D800683B684768478C506819BF0B68198C6E60
:1015E80021EF0BF08CBEFBEF0AF0FEEF0AF0010EC4
:1015F800FFEF0AF0000EFF0A686F683368338C50FB
:1016080068197F0B68198C6E21EF0BF066C068F0C3
:1016180067C069F000016951000AD8B416EF0BF0F1
:1016280021EF0BF06851040AD8B4E1EF0AF0010A7F
:10163800D8B4F6EF0AF021EF0BF0120049EF0BF0E7
:101648008CB029EF0BF02CEF0BF0010E2DEF0BF007
:10165800000EFF0A686F8C506819FE0B68198C6EB3
:1016680060EF0BF08CB23BEF0BF03EEF0BF0010E8E
:101678003FEF0BF0000EFF0A686F68478C5068193F
:10168800FD0B68198C6E60EF0BF066C068F067C0E0
:1016980069F000016951000AD8B455EF0BF060EF0A
:1016A8000BF06851000AD8B424EF0BF0010AD8B443
:1016B80036EF0BF060EF0BF0120060C064F07AEFC9
:1016C8000BF0C50ED56EF28AF294F28EE00ED66E4D
:1016D800D7689CEF0BF00F0ECD6E800ECF6E000E0C
:1016E800CE6E9E909D80CD809CEF0BF000016451E2
:1016F800626F636B6351000AD8B485EF0BF09CEFFF
:101708000BF06251000AD8B465EF0BF0010AD8B4A7
:101718006FEF0BF0030AD8B49CEF0BF0010AD8B4B2
:101728009CEF0BF0070AD8B49CEF0BF09CEF0BF082
:10173800010E516E12000600E1CF3DF0E2CF3EF0FF
:10174800D9CF3FF0DACF40F0F3CF41F0F4CF42F0F9
:10175800F2AAB1EF0BF0B3EF0BF0C7EF0BF0F2A466
:10176800B8EF0BF0BAEF0BF0C7EF0BF04D4A4E2A6B
:101778005104D8A4C2EF0BF0C4EF0BF0C6EF0BF086
:1017880066EC09F0F29442C0F4FF41C0F3FF40C098
:10179800DAFF3FC0D9FF3EC0E2FF3DC0E1FF5292F1
:1017A800110001EE00F0E60EEE6AE806FDE100EE3B
:1017B800A7F01C0EEE6AE806FDE100EE43F00F0EFE
:1017C800EE6AE806FDE1529052920001ECEF0BF050
:1017D800700ED36E000E956E000E8C6E27EC08F01E
:1017E800000E0001616F000E606F61EC0BF00FECF2
:1017F8000AF0FBEF0BF007EF00F000016051620305
:10180800F3CF64F0F4CF65F060516303F3506527BC
:1018180061516203F350652764C060F065C061F0F0
:10182800120001500302F3CF05F0F4CF06F0015087
:101838000402F350062602500302F350062605C0A0
:0818480001F006C002F01200DD
:020000040020DA
:08000000FFFFFFFFFFFFFFFF00
:020000040030CA
:0E000000FF09191EF38381FFFFC0FFE0FF40E0
:00000001FF
