:020000040000FA
:0400000007EF00F016
:0A0008005D8206ED19F0ECEF1BF02D
:10100000005365742054494D453A2020202020206B
:1010100020005365742048554D493A202020202057
:1010200020200020202020574F524B494E4720209F
:1010300020202000202020204845415420555020C9
:10104000202020200020202020534C454550494E90
:101050004720202020002020202054494D45204FAB
:101060005554202020200020202049443A31373593
:10107000323534312020200054454D503A4E412025
:1010800048554D49443A4E410044525920464F4F2D
:1010900044204D414348494E450053657420544512
:1010A0004D503A2000000001CCBF60EF08F0CC5159
:1010B00009E10A0ECB5DD8A060EF08F062EF08F0FE
:1010C0006CEF08F0000E666F000E676F000E686F21
:1010D000000E696F8FEF0CF0CB4BCC2B000E966F90
:1010E000000E956F95C060F096C061F0000E636FC2
:1010F000170E626FCDEC1DF00B0E00016025D96E4E
:10110000010E6121DA6EDE50DE10DE10DE10DE1020
:10111000DE10DE10DE10D8A490EF08F092EF08F099
:1011200098EF08F095C0CDF096C0CEF09CEF08F097
:10113000954B962B72EF08F0CDC060F0CEC061F0F9
:10114000000E636F170E626FCDEC1DF0000E0001F4
:101150006025D96E010E6121DA6E76C0DEFF77C0A0
:10116000DEFF78C0DEFFCDC060F0CEC061F0000EC3
:10117000636F170E626FCDEC1DF0130E000160253A
:10118000D96E010E6121DA6E79C0DEFF7AC0DDFF13
:10119000CDC060F0CEC061F0000E636F170E626FBD
:1011A000CDEC1DF00B0E00016025D96E010E612102
:1011B000DA6E6EC0DEFF6FC0DEFF70C0DEFF71C092
:1011C000DEFF72C0DEFF73C0DEFF74C0DEFF75C0DD
:1011D000DEFFCD51CE11D8A4F0EF08F0F2EF08F009
:1011E00037EF09F0CDC060F0CEC061F0000E636F44
:1011F000170E626FCDEC1DF0150E00016025D96E43
:10120000010E6121DA6EFF0EDE6EFF0EDD6E000E46
:10121000CA6F000EC96FCDC060F0CEC061F0000E85
:10122000636F170E626FCDEC1DF0030E0001602599
:10123000D96E010E6121DA6E66C0DEFF67C0DEFF87
:1012400068C0DEFF69C0DEFF6AC0DEFF6BC0DEFF84
:101250006CC0DEFF6DC0DEFFCDC066F0CEC067F0B3
:10126000000E67BFFF0E686F696F8FEF0CF0C9C08B
:1012700060F0CAC061F0000E636F170E626FCDECB4
:101280001DF0030E00016025D96E010E6121DA6E9A
:101290006651DE5C6751DE586851DE586951DE5890
:1012A0006A51DE586B51DE586C51DE586D51DE5874
:1012B000D8A05DEF09F05FEF09F0F5EF09F0CDC0C0
:1012C00060F0CEC061F0000E636F170E626FCDEC60
:1012D0001DF0150E00016025D96E010E6121DA6E38
:1012E000C9C0DEFFCAC0DDFFC9C060F0CAC061F07E
:1012F000000E636F170E626FCDEC1DF0030E000140
:101300006025D96E010E6121DA6EDECF7BF0DECF73
:101310007CF0DECF7DF0DECF7EF0DECF7FF0DECF63
:1013200080F0DECF81F0DECF82F066517B5D836F8F
:1013300067517C59846F68517D59856F69517E5919
:10134000866F6A517F59876F6B518059886F6C51D6
:101350008159896F6D5182598A6FC9C060F0CAC0C6
:1013600061F0000E636F170E626FCDEC1DF0030E7F
:1013700000016025D96E010E6121DA6E83C0DEFFA7
:1013800084C0DEFF85C0DEFF86C0DEFF87C0DEFFD3
:1013900088C0DEFF89C0DEFF8AC0DEFFCDC060F0FE
:1013A000CEC061F0000E636F170E626FCDEC1DF0C2
:1013B000030E00016025D96E010E6121DA6E66C050
:1013C000DEFF67C0DEFF68C0DEFF69C0DEFF6AC007
:1013D000DEFF6BC0DEFF6CC0DEFF6DC0DEFFCDC088
:1013E000C9F0CEC0CAF02CEF09F0C9C0A1F0CAC044
:1013F000A2F0C9C060F0CAC061F0000E636F170EA2
:10140000626FCDEC1DF0030E00016025D96E010E58
:101410006121DA6EDECF7BF0DECF7CF0DECF7DF0B7
:10142000DECF7EF0DECF7FF0DECF80F0DECF81F04A
:10143000DECF82F07BC099F07CC09AF07DC09BF03B
:101440007EC09CF07FC09DF080C09EF081C09FF068
:1014500082C0A0F0A1C060F0A2C061F0000E636F76
:10146000170E626FCDEC1DF0150E00016025D96ED0
:10147000010E6121DA6EDE2806E1DE28D8A443EFF2
:101480000AF045EF0AF0AAEF0AF0A1C060F0A2C08E
:1014900061F0000E636F170E626FCDEC1DF0150E3C
:1014A00000016025D96E010E6121DA6ECDC0DEFF2C
:1014B000CEC0DDFFCDC060F0CEC061F0000E636F26
:1014C000170E626FCDEC1DF0150E00016025D96E70
:1014D000010E6121DA6EFF0EDE6EFF0EDD6E995198
:1014E000665D7B6F9A5167597C6F9B5168597D6F20
:1014F0009C5169597E6F9D516A597F6F9E516B59FE
:10150000806F9F516C59816FA0516D59826FCDC012
:1015100060F0CEC061F0000E636F170E626FCDEC0D
:101520001DF0030E00016025D96E010E6121DA6EF7
:101530007BC0DEFF7CC0DEFF7DC0DEFF7EC0DEFF45
:101540007FC0DEFF80C0DEFF81C0DEFF82C0DEFF25
:101550002CEF09F0A1C060F0A2C061F0000E636F33
:10156000170E626FCDEC1DF0150E00016025D96ECF
:10157000010E6121DA6EDECF97F0DDCF98F097C0D3
:1015800060F098C061F0000E636F170E626FCDECD3
:101590001DF0030E00016025D96E010E6121DA6E87
:1015A000DECF7BF0DECF7CF0DECF7DF0DECF7EF0D5
:1015B000DECF7FF0DECF80F0DECF81F0DECF82F0B5
:1015C00099517B25996F9A517C219A6F9B517D216E
:1015D0009B6F9C517E219C6F9D517F219D6F9E51E1
:1015E00080219E6F9F5181219F6FA0518221A06F0A
:1015F0006651995D67519A5968519B5969519C5937
:101600006A519D596B519E596C519F596D51A0590A
:10161000D8A00DEF0BF00FEF0BF078EF0CF0A1C09E
:1016200060F0A2C061F0000E636F170E626FCDEC28
:101630001DF0150E00016025D96E010E6121DA6ED4
:10164000DECF97F0DDCF98F097C060F098C061F0E2
:10165000000E636F170E626FCDEC1DF0030E0001DC
:101660006025D96E010E6121DA6EDECF7BF0DECF10
:101670007CF0DECF7DF0DECF7EF0DECF7FF0DECF00
:1016800080F0DECF81F0DECF82F07B51995D996FE3
:101690007C519A599A6F7D519B599B6F7E519C59F1
:1016A0009C6F7F519D599D6F80519E599E6F8151B6
:1016B0009F599F6F8251A059A06F9951665D7B6FB2
:1016C0009A5167597C6F9B5168597D6F9C5169593C
:1016D0007E6F9D516A597F6F9E516B59806F9F51EC
:1016E0006C59816FA0516D59826FCDC060F0CEC032
:1016F00061F0000E636F170E626FCDEC1DF0030EEC
:1017000000016025D96E010E6121DA6E7BC0DEFF1B
:101710007CC0DEFF7DC0DEFF7EC0DEFF7FC0DEFF5F
:1017200080C0DEFF81C0DEFF82C0DEFFA1C060F0AE
:10173000A2C061F0000E636F170E626FCDEC1DF05A
:10174000150E00016025D96E010E6121DA6ECDC043
:1017500060F0CEC061F0000E636F170E626FCDECCB
:101760001DF0150E00016025E16E010E6121E26E93
:10177000DECFE6FFDDCFE5FFCDC060F0CEC061F08B
:10178000000E636F170E626FCDEC1DF0150E000199
:101790006025D96E010E6121DA6EDECF97F0DDCFC4
:1017A00098F0CDC060F0CEC061F0000E636F170EF0
:1017B000626FCDEC1DF0150E00016025D96E010E93
:1017C0006121DA6EDECF93F0DDCF94F0CDC060F012
:1017D000CEC061F0000E636F170E626FCDEC1DF08E
:1017E000030E00016025D96E010E6121DA6EDECF95
:1017F0007BF0DECF7CF0DECF7DF0DECF7EF0DECF83
:101800007FF0DECF80F0DECF81F0DECF82F097C0B8
:1018100060F098C061F0000E636F170E626FCDEC40
:101820001DF0030E00016025D96E010E6121DA6EF4
:10183000DECF83F0DECF84F0DECF85F0DECF86F022
:10184000DECF87F0DECF88F0DECF89F0DECF8AF002
:101850007B51835D8B6F7C5184598C6F7D51855991
:101860008D6F7E5186598E6F7F5187598F6F805152
:101870008859906F81518959916F82518A59926F1D
:1018800093C060F094C061F0000E636F170E626F3A
:10189000CDEC1DF0030E00016025D96E010E612113
:1018A000DA6E8BC0DEFF8CC0DEFF8DC0DEFF8EC027
:1018B000DEFF8FC0DEFF90C0DEFF91C0DEFF92C072
:1018C000DEFFA1C060F0A2C061F0000E636F170ED2
:1018D000626FCDEC1DF0150E00016025D96E010E72
:1018E0006121DA6ECDC0DEFFCEC0DDFF2CEF09F046
:1018F000A1C060F0A2C061F0000E636F170E626FAE
:10190000CDEC1DF0150E00016025D96E010E612190
:10191000DA6EDECFA1F0DDCFA2F02AEF0AF01200DE
:10192000C9C02DF0CAC02EF007C001F008C002F0F7
:10193000000E046E170E036EE1EC1DF00B0E012479
:10194000D96E010E0220DA6E2DC001F02EC002F019
:10195000000E046E170E036EE1EC1DF0030E012461
:10196000E16E010E0220E26EDE50E65CDE50E658CB
:10197000DE50E658DE50E658DE50E658DE50E658B7
:10198000DE50E658DE50E658D8A0C9EF0CF0CBEF99
:101990000CF09DEF0DF007C001F008C002F0000E42
:1019A000046E170E036EE1EC1DF0150E0124D96EC6
:1019B000010E0220DA6E2DC0DEFF2EC0DDFF07C053
:1019C00001F008C002F0000E046E170E036EE1EC89
:1019D0001DF00B0E0124D96E010E0220DA6EDECF4F
:1019E00009F0DECF0AF0DECF0BF0DECF0CF0DECF59
:1019F0000DF0DECF0EF0DECF0FF0DECF10F007C01F
:101A000001F008C002F0000E046E170E036EE1EC48
:101A10001DF0030E0124D96E010E0220DA6E09C0FA
:101A2000DEFF0AC0DEFF0BC0DEFF0CC0DEFF0DC014
:101A3000DEFF0EC0DEFF0FC0DEFF10C0DEFF07C0FE
:101A400001F008C002F0000E046E170E036EE1EC08
:101A50001DF0030E0124D96E010E0220DA6EDECFD6
:101A600009F0DECF0AF0DECF0BF0DECF0CF0DECFD8
:101A70000DF0DECF0EF0DECF0FF0DECF10F02DC078
:101A800001F02EC002F0000E046E170E036EE1ECA2
:101A90001DF0030E0124D96E010E0220DA6EDECF96
:101AA00011F0DECF12F0DECF13F0DECF14F0DECF78
:101AB00015F0DECF16F0DECF17F0DECF18F00950AC
:101AC000115C196E0A5012581A6E0B5013581B6E87
:101AD0000C5014581C6E0D5015581D6E0E50165893
:101AE0001E6E0F5017581F6E10501858206E2DC0C4
:101AF00001F02EC002F0000E046E170E036EE1EC32
:101B00001DF0030E0124D96E010E0220DA6E19C0F9
:101B1000DEFF1AC0DEFF1BC0DEFF1CC0DEFF1DC0E3
:101B2000DEFF1EC0DEFF1FC0DEFF20C0DEFF07C0DD
:101B3000C9F008C0CAF070EF10F0C9C001F0CAC007
:101B400002F0000E046E170E036EE1EC1DF0030EA2
:101B50000124D96E010E0220DA6EDECF09F0DECF4D
:101B60000AF0DECF0BF0DECF0CF0DECF0DF0DECFD3
:101B70000EF0DECF0FF0DECF10F009C025F00AC066
:101B800026F00BC027F00CC028F00DC029F00EC0C5
:101B90002AF00FC02BF010C02CF02DC001F02EC089
:101BA00002F0000E046E170E036EE1EC1DF0150E30
:101BB0000124D96E010E0220DA6EDE2806E1DE284D
:101BC000D8A4E5EF0DF0E7EF0DF069EF0EF02DC0B2
:101BD00001F02EC002F0000E046E170E036EE1EC51
:101BE0001DF0150E0124D96E010E0220DA6E07C019
:101BF000DEFF08C0DDFF07C001F008C002F0000EE4
:101C0000046E170E036EE1EC1DF0150E0124D96E63
:101C1000010E0220DA6EFF0EDE6EFF0EDD6E07C0D3
:101C200001F008C002F0000E046E170E036EE1EC26
:101C30001DF00B0E0124D96E010E0220DA6EDECFEC
:101C400009F0DECF0AF0DECF0BF0DECF0CF0DECFF6
:101C50000DF0DECF0EF0DECF0FF0DECF10F025500E
:101C6000095C116E26500A58126E27500B58136EDD
:101C700028500C58146E29500D58156E2A500E58C5
:101C8000166E2B500F58176E2C501058186E07C038
:101C900001F008C002F0000E046E170E036EE1ECB6
:101CA0001DF0030E0124D96E010E0220DA6E11C060
:101CB000DEFF12C0DEFF13C0DEFF14C0DEFF15C062
:101CC000DEFF16C0DEFF17C0DEFF18C0DEFF70EFBC
:101CD00010F02DC001F02EC002F0000E046E170EA1
:101CE000036EE1EC1DF0150E0124D96E010E0220E9
:101CF000DA6EDECF23F0DDCF24F023C001F024C064
:101D000002F0000E046E170E036EE1EC1DF0030EE0
:101D10000124D96E010E0220DA6EDECF09F0DECF8B
:101D20000AF0DECF0BF0DECF0CF0DECF0DF0DECF11
:101D30000EF0DECF0FF0DECF10F025500924256E17
:101D400026500A20266E27500B20276E28500C2084
:101D5000286E29500D20296E2A500E202A6E2B50F5
:101D60000F202B6E2C5010202C6E07C001F008C0E5
:101D700002F0000E046E170E036EE1EC1DF00B0E68
:101D80000124D96E010E0220DA6EDE50255CDE5091
:101D90002658DE502758DE502858DE502958DE508D
:101DA0002A58DE502B58DE502C58D8A0DAEF0EF00F
:101DB000DCEF0EF05AEF10F02DC001F02EC002F053
:101DC000000E046E170E036EE1EC1DF0150E0124DB
:101DD000D96E010E0220DA6EDECF23F0DDCF24F0C3
:101DE00023C001F024C002F0000E046E170E036E33
:101DF000E1EC1DF0030E0124D96E010E0220DA6E13
:101E0000DECF09F0DECF0AF0DECF0BF0DECF0CF034
:101E1000DECF0DF0DECF0EF0DECF0FF0DECF10F014
:101E20000950255C256E0A502658266E0B502758FF
:101E3000276E0C502858286E0D502958296E0E50C8
:101E40002A582A6E0F502B582B6E10502C582C6E7F
:101E500007C001F008C002F0000E046E170E036EFA
:101E6000E1EC1DF00B0E0124D96E010E0220DA6E9A
:101E7000DECF09F0DECF0AF0DECF0BF0DECF0CF0C4
:101E8000DECF0DF0DECF0EF0DECF0FF0DECF10F0A4
:101E90002550095C116E26500A58126E27500B58B7
:101EA000136E28500C58146E29500D58156E2A5078
:101EB0000E58166E2B500F58176E2C501058186E67
:101EC00007C001F008C002F0000E046E170E036E8A
:101ED000E1EC1DF0030E0124D96E010E0220DA6E32
:101EE00011C0DEFF12C0DEFF13C0DEFF14C0DEFF34
:101EF00015C0DEFF16C0DEFF17C0DEFF18C0DEFF14
:101F00002DC001F02EC002F0000E046E170E036EFD
:101F1000E1EC1DF0150E0124D96E010E0220DA6EDF
:101F200007C001F008C002F0000E046E170E036E29
:101F3000E1EC1DF0150E0124E16E010E0220E26EAF
:101F4000DECFE6FFDDCFE5FF2DC001F02EC002F0B1
:101F5000000E046E170E036EE1EC1DF0150E012449
:101F6000D96E010E0220DA6E07C0DEFF08C0DDFF69
:101F700007C001F008C002F0000E046E170E036ED9
:101F8000E1EC1DF0150E0124D96E010E0220DA6E6F
:101F9000DECF23F0DDCF24F007C001F008C002F04F
:101FA000000E046E170E036EE1EC1DF0150E0124F9
:101FB000D96E010E0220DA6EDECF21F0DDCF22F0E5
:101FC00007C001F008C002F0000E046E170E036E89
:101FD000E1EC1DF0030E0124D96E010E0220DA6E31
:101FE000DECF09F0DECF0AF0DECF0BF0DECF0CF053
:101FF000DECF0DF0DECF0EF0DECF0FF0DECF10F033
:1020000023C001F024C002F0000E046E170E036E10
:10201000E1EC1DF0030E0124D96E010E0220DA6EF0
:10202000DECF11F0DECF12F0DECF13F0DECF14F0F2
:10203000DECF15F0DECF16F0DECF17F0DECF18F0D2
:102040000950115C196E0A5012581A6E0B50135831
:102050001B6E0C5014581C6E0D5015581D6E0E50F2
:1020600016581E6E0F5017581F6E10501858206EBD
:1020700021C001F022C002F0000E046E170E036EA4
:10208000E1EC1DF0030E0124D96E010E0220DA6E80
:1020900019C0DEFF1AC0DEFF1BC0DEFF1CC0DEFF62
:1020A0001DC0DEFF1EC0DEFF1FC0DEFF20C0DEFF42
:1020B00070EF10F02DC001F02EC002F0000E046E83
:1020C000170E036EE1EC1DF0150E0124D96E010E02
:1020D0000220DA6EDECF2DF0DDCF2EF0CDEF0DF049
:1020E0001200C9C06AF0CAC06BF0000E00016BBFDD
:1020F000FF0E6C6F6D6F66516A190DE167516B19B8
:102100000AE168516C1907E169516D19D8A48BEF88
:1021100010F08DEF10F069EF11F0C9C060F0CAC087
:1021200061F0000E636F170E626FCDEC1DF0000EB4
:1021300000016025D96E010E6121DA6E000EDE6E9F
:10214000000EDE6E000EDE6EC9C060F0CAC061F027
:10215000000E636F170E626FCDEC1DF00B0E0001C9
:102160006025D96E010E6121DA6E070EDE6AE8067F
:10217000FDE2C9C060F0CAC061F0000E636F170EC7
:10218000626FCDEC1DF0150E00016025D96E010EB9
:102190006121DA6EDECF72F0DDCF73F0C9C060F07E
:1021A000CAC061F0000E636F170E626FCDEC1DF0B8
:1021B000030E00016025D96E010E6121DA6EDECFBB
:1021C0006AF0DECF6BF0DECF6CF0DECF6DF0DECFED
:1021D0006EF0DECF6FF0DECF70F0DECF71F072C048
:1021E00060F073C061F0000E636F170E626FCDEC8C
:1021F0001DF0030E00016025D96E010E6121DA6E1B
:102200006A51DE266B51DE226C51DE226D51DE22D8
:102210006E51DE226F51DE227051DE227151DE22BC
:10222000C9C060F0CAC061F0000E636F170E626F24
:10223000CDEC1DF0030E00016025D96E010E612169
:10224000DA6E070EDE6AE806FDE2C9C060F0CAC0B9
:1022500061F0000E636F170E626FCDEC1DF0130E70
:1022600000016025D96E010E6121DA6E000EDE6E6E
:10227000000EDD6EC9C060F0CAC061F0000E636F71
:10228000170E626FCDEC1DF0150E00016025D96EA2
:10229000010E6121DA6EDECFC9F0DDCFCAF0C9C010
:1022A00060F0CAC061F0000E636F170E626FCDEC74
:1022B0001DF0150E00016025D96E010E6121DA6E48
:1022C000FF0EDE6EFF0EDD6ECB07D8A0CC07A6EFAB
:1022D00012F0C9C074F0CAC075F074C060F075C067
:1022E00061F0000E636F170E626FCDEC1DF0150EDE
:1022F00000016025D96E010E6121DA6EDECF6AF031
:10230000DDCF6BF06AC06CF06BC06DF0000E6DBF7E
:10231000FF0E6E6F6F6F66516C190DE167516D198D
:102320000AE168516E1907E169516F19D8A49BEF52
:1023300011F09DEF11F087EF12F066C060F067C0FA
:1023400061F0000E636F170E626FCDEC1DF0000E92
:1023500000016025D96E010E6121DA6E000EDE6E7D
:10236000000EDE6E000EDE6E66C060F067C061F0CB
:10237000000E636F170E626FCDEC1DF00B0E0001A7
:102380006025D96E010E6121DA6E070EDE6AE8065D
:10239000FDE266C060F067C061F0000E636F170E6B
:1023A000626FCDEC1DF0150E00016025D96E010E97
:1023B0006121DA6EDECF72F0DDCF73F066C060F0BF
:1023C00067C061F0000E636F170E626FCDEC1DF0F9
:1023D000030E00016025D96E010E6121DA6EDECF99
:1023E0006AF0DECF6BF0DECF6CF0DECF6DF0DECFCB
:1023F0006EF0DECF6FF0DECF70F0DECF71F072C026
:1024000060F073C061F0000E636F170E626FCDEC69
:102410001DF0030E00016025D96E010E6121DA6EF8
:102420006A51DE266B51DE226C51DE226D51DE22B6
:102430006E51DE226F51DE227051DE227151DE229A
:1024400066C060F067C061F0000E636F170E626FC8
:10245000CDEC1DF0030E00016025D96E010E612147
:10246000DA6E070EDE6AE806FDE266C060F067C05D
:1024700061F0000E636F170E626FCDEC1DF0130E4E
:1024800000016025D96E010E6121DA6E000EDE6E4C
:10249000000EDD6E66C060F067C061F0000E636F15
:1024A000170E626FCDEC1DF0150E00016025D96E80
:1024B000010E6121DA6E74C060F075C061F0000E2B
:1024C000636F170E626FCDEC1DF0150E00016025D5
:1024D000E16E010E6121E26EDECFE6FFDDCFE5FFAA
:1024E00066C060F067C061F0000E636F170E626F28
:1024F000CDEC1DF0150E00016025D96E010E612195
:10250000DA6EFF0EDE6EFF0EDD6E64EF11F074C04A
:1025100060F075C061F0000E636F170E626FCDEC56
:102520001DF0150E00016025D96E010E6121DA6ED5
:10253000DECF74F0DDCF75F0742906E17529D8A4DB
:10254000A4EF12F0A6EF12F06DEF11F0120004EFFD
:1025500014F0800E8AEC1CF0450E0001666F100E20
:10256000676F4DEC1DF02BEF14F0800E8AEC1CF021
:10257000340E0001666F100E676F4DEC1DF02BEFEF
:1025800014F0800E8AEC1CF0230E0001666F100E12
:10259000676F4DEC1DF02BEF14F0800E8AEC1CF0F1
:1025A000560E0001666F100E676F4DEC1DF02BEF9D
:1025B00014F0800E8AEC1CF0010E0001666F100E04
:1025C000676F4DEC1DF08B0E8AEC1CF0E1C060F0E3
:1025D0000001616B000E636F0A0E626F97EC1AF0D8
:1025E00000016051300FB4EC1CF0E1C060F000015C
:1025F000616B000E636F0A0E626F55EC1BF00001F9
:102600006051300FB4EC1CF0730EB4EC1CF02BEFE7
:1026100014F0800E8AEC1CF09A0E0001666F100E0A
:10262000676F4DEC1DF08B0E8AEC1CF0E0C060F083
:102630000001616B000E636F0A0E626F97EC1AF077
:1026400000016051300FB4EC1CF0E0C060F00001FC
:10265000616B000E636F0A0E626F55EC1BF0000198
:102660006051300FB4EC1CF0430EB4EC1CF02BEFB7
:1026700014F0800E8AEC1CF0120E0001666F100E32
:10268000676F4DEC1DF08B0E8AEC1CF05AC060F0A9
:102690000001616B000E636F0A0E626F97EC1AF017
:1026A00000016051300FB4EC1CF05AC060F0000122
:1026B000616B000E636F0A0E626F55EC1BF0000138
:1026C0006051300FB4EC1CF0250EB4EC1CF02BEF75
:1026D00014F0DB516A6F6B6B6B51000AD8B473EF67
:1026E00013F02BEF14F06A51000AD8B4D9EF12F0AE
:1026F000010AD8B409EF13F0030AD8B439EF13F084
:102700002BEF14F08B0E8AEC1CF0E1C060F000019E
:10271000616B000E636F0A0E626F97EC1AF0000196
:102720006051300FB4EC1CF0E1C060F00001616B4F
:10273000000E636F0A0E626F55EC1BF000016051D2
:10274000300FB4EC1CF02BEF14F08B0E8AEC1CF065
:10275000E0C060F00001616B000E636F0A0E626FF3
:1027600097EC1AF000016051300FB4EC1CF0E0C09F
:1027700060F00001616B000E636F0A0E626F55EC32
:102780001BF000016051300FB4EC1CF02BEF14F083
:102790008B0E8AEC1CF05AC060F00001616B000ED9
:1027A000636F0A0E626F97EC1AF000016051300FF0
:1027B000B4EC1CF05AC060F00001616B000E636F56
:1027C0000A0E626F55EC1BF000016051300FB4EC43
:1027D0001CF02BEF14F0DB516A6F6B6B6B51000A2E
:1027E000D8B4F5EF13F02BEF14F06A51000AD8B407
:1027F00082EF13F0010AD8B4A5EF13F0030AD8B49E
:10280000C8EF13F02BEF14F068C06AF069C06BF0EA
:1028100000016B51000AD8B410EF14F02BEF14F044
:102820006A51000AD8B4A9EF12F0010AD8B4B5EF82
:1028300012F0030AD8B4C1EF12F0010AD8B4CDEFF8
:1028400012F0070AD8B469EF13F0010AD8B4EBEF1D
:1028500013F02BEF14F0120015EF15F0DD05D8A4DE
:1028600034EF14F036EF14F02FEF15F0020E5B6E1C
:102870002FEF15F0020EDD19D8A441EF14F043EF4D
:1028800014F099EF14F078EF14F0010EE125606F69
:10289000616B000E6123000E636F150E626F55ECC5
:1028A0001BF000016051E16F91EF14F0010EE02583
:1028B000606F616B000E6123000E636F320E626FFA
:1028C00055EC1BF000016051E06F91EF14F0010E28
:1028D0005A24606F616B000E6123000E636F640EFB
:1028E000626F55EC1BF0000160515A6E91EF14F0CD
:1028F000DB516C6F6D6B6D51000AD8B482EF14F030
:1029000091EF14F06C51000AD8B445EF14F0010AAD
:10291000D8B456EF14F0030AD8B467EF14F091EF6F
:1029200014F0000E696F050E686FA7EC12F0010E2F
:102930005B6E950E0001DC65A0EF14F0A2EF14F0C1
:102940002FEF15F0000EDC6F5B2A2FEF15F0020E53
:10295000DD19D8A4AEEF14F0B0EF14F0B4EF14F01A
:10296000010E5B6E000EDC6F130EDC65BAEF14F027
:10297000BCEF14F02FEF15F0F1EF14F0010EE1258C
:10298000606F616B000E6123000E636F150E626F46
:1029900055EC1BF000016051E16F0AEF15F0010EDC
:1029A000E025606F616B000E6123000E636F320ED5
:1029B000626F55EC1BF000016051E06F0AEF15F0FB
:1029C000010E5A24606F616B000E6123000E636F6D
:1029D000640E626F55EC1BF0000160515A6E0AEFF5
:1029E00015F0DB516C6F6D6B6D51000AD8B4FBEFC5
:1029F00014F00AEF15F06C51000AD8B4BEEF14F0D1
:102A0000010AD8B4CFEF14F0030AD8B4E0EF14F001
:102A10000AEF15F0000E696F050E686FA7EC12F053
:102A2000000E0001DC6F2FEF15F05B5000016C6FA2
:102A30006D6B6D51000AD8B420EF15F02FEF15F033
:102A40006C51010AD8B42EEF14F0030AD8B43AEF4F
:102A500014F0010AD8B4A7EF14F02FEF15F012000C
:102A6000FAEC1AF001EF16F024EC16F023EF16F052
:102A700024EC16F00001E051640DD551F35CF450E4
:102A8000800AA36FD651800AA359D8B04AEF15F037
:102A90004CEF15F023EF16F0020E576EE1C060F018
:102AA000616B030E636FE80E626FCDEC1DF00001E9
:102AB00060C0A9F061C0AAF0000EAABFFF0EAB6F04
:102AC000AC6FAD6FAE6FAF6FB06F000E666F000E84
:102AD000676F000E686F000E696F000E6A6F000E60
:102AE0006B6F000E6C6F000E6D6FA9C06EF0AAC008
:102AF0006FF0ABC070F0ACC071F0ADC072F0AEC0A2
:102B000073F0AFC074F0B0C075F0DA0E766F3A0EA5
:102B1000776F000E786F010E796F000E7A6F53ECAD
:102B200008F0000E566E57C068F00001696BA7EC04
:102B300012F023EF16F053BEA7EF15F02C0E525CE7
:102B4000010E5358D8A0A7EF15F0A9EF15F0D4EF58
:102B500015F08C80D4EF15F0D4BFB8EF15F0580EF7
:102B6000D35D020ED459D8A0B8EF15F0BAEF15F026
:102B7000BCEF15F0030E576E8C888C8634EF15F081
:102B8000D2BFCCEF15F0580ED15D020ED259D8A0AD
:102B9000CCEF15F0CEEF15F0D0EF15F0030E576E19
:102BA0008C8E8C8C34EF15F05650A36FA46BA4510F
:102BB000000AD8B4DEEF15F034EF15F0A351000A87
:102BC000D8B4ACEF15F0010AD8B4C0EF15F034EF6B
:102BD00015F057C068F0696BA7EC12F0000E000109
:102BE000D46F000ED36F000ED26F000ED16F000EA7
:102BF000576E93EF15F024EC16F02CEC14F023EF45
:102C000016F057500001A36FA46BA451000AD8B46A
:102C10000CEF16F023EF16F0A351000AD8B434EFEE
:102C200015F0010AD8B438EF15F0030AD8B49BEFB9
:102C300015F0010AD8B4E9EF15F0070AD8B4FBEF94
:102C400015F023EF16F01200F9EF16F0DE05D8A408
:102C50002CEF16F02EEF16F013EF17F0020EE26FC6
:102C600013EF17F0DE05D8A438EF16F03AEF16F0A0
:102C70004CEF16F0DD05D8A440EF16F042EF16F049
:102C80004CEF16F05750D8A448EF16F04AEF16F064
:102C90004CEF16F0030EE26F020EDE19D8A453EFCC
:102CA00016F055EF16F013EF17F0BEEF16F0010E09
:102CB000576E57C068F0696BA7EC12F08C868C8851
:102CC000000E0001D66F000ED56F000E536E000E81
:102CD000526E7FEF16F0DB2B030EDB19D8A473EFD7
:102CE00016F075EF16F084EF16F0000E576E57C011
:102CF00068F0696BA7EC12F0000E0001DB6F010EAB
:102D00000001E26F13EF17F0000E696F040E686F99
:102D1000A7EC12F07FEF16F0000ED46F000ED36F09
:102D2000000ED26F000ED16F5704D8B49AEF16F090
:102D30009CEF16F0AFEF16F0040E5718D8B4A3EFBF
:102D400016F0A5EF16F0AFEF16F0030E666F000E4B
:102D5000676F000E686F000E696F71EC10F08C9851
:102D60008C968C9E8C9C8C90000E576E57C068F091
:102D70000001696BA7EC12F07FEF16F05750766FE9
:102D8000776B7751000AD8B4C8EF16F08CEF16F0C5
:102D90007651000AD8B457EF16F0040AD8B46BEF96
:102DA00016F08CEF16F0020EDE19D8A4DAEF16F04A
:102DB000DCEF16F0EFEF16F0020EDD19D8A4E3EF0A
:102DC00016F0E5EF16F0EFEF16F0040E576E57C051
:102DD00068F0696BA7EC12F0010E0001E26F57502A
:102DE000D8B4F5EF16F0F7EF16F013EF17F07FEF0A
:102DF00016F00001E251766F776B7751000AD8B474
:102E000004EF17F013EF17F07651010AD8B426EF4C
:102E100016F0030AD8B432EF16F0010AD8B4D3EF93
:102E200016F013EF17F01200000E3C6E000E3B6E12
:102E30001CEF17F03B4A3C2AD8903B34D96E3C3407
:102E4000DA6EB10ED926000EDA22DE50DE10D8A4DA
:102E50002CEF17F02EEF17F01AEF17F0C9C001F0A2
:102E6000CAC002F0000E046E170E036EE1EC1DF0F6
:102E7000030E0124D96E010E0220DA6EDE50DE1040
:102E8000DE10DE10DE10DE10DE10DE10D8B44BEFE8
:102E900017F04DEF17F0A0EF17F0C9C001F0CAC04E
:102EA00002F0000E046E170E036EE1EC1DF0030E2F
:102EB0000124D96E010E0220DA6E0A0EDE5E000ECB
:102EC000DE5ADE5ADE5ADE5ADE5ADE5ADE5AA0EFEB
:102ED00017F0C9C039F0CAC03AF0C9C001F0CAC081
:102EE00002F0000E046E170E036EE1EC1DF0150EDD
:102EF0000124D96E010E0220DA6EDECFC9F0DDCFDB
:102F0000CAF0010E3924316E000E3A20326ED8908C
:102F10003B34D96E3C34DA6EB10ED926000EDA227B
:102F200031C0DEFF32C0DDFF39C007F03AC008F023
:102F300090EC0CF0010E3B243B6E000E3C203C6EEE
:102F4000C9C001F0CAC002F0000E046E170E036E75
:102F5000E1EC1DF0030E0124D96E010E0220DA6EA1
:102F6000DE50DE10DE10DE10DE10DE10DE10DE10B1
:102F7000D8B4BDEF17F0BFEF17F069EF17F0000EF0
:102F8000306E010E2F6E1200000E00016A6F640E8B
:102F9000696F94908B90410E0001666FEE0EE82EE3
:102FA000FED7662FFCD700F08B80100EE82EFED7E0
:102FB00000D09480ECEF17F000016907D8A06A07F1
:102FC00069516A11D8A4E7EF17F0E9EF17F0ECEFB9
:102FD00017F0000E65EF18F082B0F1EF17F0F3EF85
:102FE00017F0DCEF17F0000E00016A6F640E696FD6
:102FF00008EF18F06907D8A06A0769516A11D8A4C8
:1030000004EF18F006EF18F008EF18F0E9EF17F0EA
:1030100082A00DEF18F010EF18F0010E11EF18F06C
:10302000000E666F676B66B118EF18F01AEF18F0B4
:10303000FAEF17F0000E6A6F640E696F2EEF18F04A
:103040006907D8A06A0769516A11D8A42AEF18F055
:103050002CEF18F02EEF18F0E9EF17F082B033EFF5
:1030600018F035EF18F020EF18F026EC1AF00001F8
:10307000C56F26EC1AF00001C66F26EC1AF00001AD
:10308000C76F26EC1AF00001C86F26EC1AF0000199
:10309000686F6829D8A44FEF18F053EF18F0666BEB
:1030A000662B55EF18F00001666BC651C825C52583
:1030B000C72566150009D8B460EF18F062EF18F064
:1030C00064EF18F0E9EF17F0010E1200000E000196
:1030D000666F000E676F000E686F000E696F000E5E
:1030E0006A6F000E6B6F000E6C6F000E6D6F280E16
:1030F0006E6F000E6F6F000E706F000E716F000E1E
:10310000726F000E736F000E746F000E756F0A0EF3
:10311000766F3A0E776F000E786F000E796F000EA3
:103120007A6F53EC08F066C0A3F067C0A4F068C0E3
:10313000A5F069C0A6F0E80E0001666F030E676F88
:10314000000E686F000E696F000E6A6F000E6B6FE5
:10315000000E6C6F000E6D6FF40E6E6F010E6F6FD0
:10316000000E706F000E716F000E726F000E736FA5
:10317000000E746F000E756F440E766F3B0E776F06
:10318000000E786F000E796F000E7A6F53EC08F026
:1031900066C0A3F067C0A4F068C0A5F069C0A6F03F
:1031A000140E0001666F000E676F000E686F000E50
:1031B000696F000E6A6F000E6B6F000E6C6F000E71
:1031C0006D6F280E6E6F000E6F6F000E706F000E29
:1031D000716F000E726F000E736F000E746F000E31
:1031E000756F540E766F3A0E776F000E786F000E83
:1031F000796F000E7A6F53EC08F066C0A3F067C0D9
:10320000A4F068C0A5F069C0A6F012000600E1CFE6
:103210003EF0E2CF3FF0D9CF40F0DACF41F0F3CF2C
:1032200042F0F4CF43F0F2AA18EF19F01AEF19F0B8
:103230008BEF19F0F2A41FEF19F021EF19F08BEFCB
:1032400019F0F294000ED76EB20ED66E5704D8A4C1
:103250002CEF19F02EEF19F031EF19F00001D54BDA
:10326000D62B020E5718D8A438EF19F03AEF19F000
:103270004DEF19F05A500A0D5250F35CF450800A89
:103280003D6E5350800A3D58D8A049EF19F04BEFDE
:1032900019F04DEF19F0524A532A5504D8A453EFB0
:1032A00019F055EF19F057EF19F014EC17F0020E62
:1032B0005718D8A45EEF19F060EF19F06DEF19F010
:1032C0005650D8A466EF19F068EF19F06DEF19F0B9
:1032D0000001D34BD42B81EF19F0020E5718D8A45C
:1032E00074EF19F076EF19F081EF19F05604D8A4B5
:1032F0007CEF19F07EEF19F081EF19F00001D14B4E
:10330000D22B010E5B6487EF19F089EF19F08BEF78
:1033100019F00001DC2B43C0F4FF42C0F3FF41C0B1
:10332000DAFF40C0D9FF3FC0E2FF3EC0E1FF5D923F
:103330001100000E0001706F000E6F6F0DEF1AF09C
:10334000D8906F35D96E7035DA6EB10ED926000E71
:10335000DA22DECF60F0DDCF61F0000E636F170E72
:10336000626FCDEC1DF0FC0E00016025D96E000EE1
:103370006121DA6EDECF6BF0DDCF6CF0D8906F3567
:10338000D96E7035DA6EB10ED926000EDA22DECF94
:1033900060F0DDCF61F0000E636F170E626FCDEC51
:1033A0001DF0E90E00016025D96E000E6121DA6E74
:1033B00002D8E5EF19F00500FA6EDE50FD6EDE5022
:1033C000FE6EDE50FF6EFA501200D89000016F358D
:1033D000D96E7035DA6EB10ED926000EDA22DE040F
:1033E000DE10D8A4F6EF19F0F8EF19F0FAEF19F0A3
:1033F000CF4BD02BD8906F35D96E7035DA6EB10EB9
:10340000D926000EDA22000EDE6E000EDD6E010EF1
:103410006F256F6F000E7021706FD8906F35D96E69
:103420007035DA6EB10ED926000EDA22010EDBBE3F
:1034300025EF1AF0010EDB5006E1DE04D8B023EFD1
:103440001AF025EF1AF0A0EF19F01200000E00019B
:10345000656F3AEF1AF06307D8A0640763516411EF
:10346000D8A435EF1AF037EF1AF03AEF1AF0000E41
:1034700096EF1AF082A03FEF1AF041EF1AF02BEF0F
:103480001AF0140EE82EFED700D082B04AEF1AF0E0
:103490004CEF1AF060EF1AF0000165510708606FF9
:1034A000010E616F602B57EF1AF0D8906137602FD3
:1034B00055EF1AF000016151FF0A62178CEF1AF004
:1034C000000165510708606F010E616F602B6BEFA3
:1034D0001AF0D8906137602F69EF1AF0000161513E
:1034E0006213000E646F640E636F85EF1AF063075A
:1034F000D8A0640763516411D8A481EF1AF083EF58
:103500001AF085EF1AF037EF1AF082B08AEF1AF04E
:103510008CEF1AF077EF1AF0652B070E656593EFC5
:103520001AF095EF1AF03AEF1AF062511200000EFD
:103530000001656F63BFA1EF1AF09FEF1AF0A7EFCC
:103540001AF0626D631FD8B0632B010E656F61BF07
:10355000AEEF1AF0ACEF1AF0B4EF1AF0606D611F25
:10356000D8B0612B010E651B000E676F000E666FF1
:1035700062516311D8B4BFEF1AF0C1EF1AF0E9EF4E
:103580001AF0010E646FC9EF1AF0D89062376337F2
:10359000642B63AFCEEF1AF0D0EF1AF0C5EF1AF03C
:1035A000D890663767376251605D63516159D8A022
:1035B000DCEF1AF0DEEF1AF0E3EF1AF06251605F11
:1035C0006351615B6681D89063336233642FD0EFBF
:1035D0001AF06551D8B4EFEF1AF0F1EF1AF0F5EFE9
:1035E0001AF0666D671FD8B0672B66C060F067C0C1
:1035F00061F012000001D851DA19D8B402EF1BF0C3
:1036000004EF1BF027EF1BF0C50E8AEC1CF0C7C0BF
:1036100060F00001616B000E636F0A0E626F97EC41
:103620001AF000016051300FB4EC1CF0C7C060F01C
:103630000001616B000E636F0A0E626F55EC1BF0A8
:1036400000016051300FB4EC1CF0DAC0D8F000017A
:10365000D751D919D8B42FEF1BF031EF1BF054EF2D
:103660001BF0CE0E8AEC1CF0C5C060F00001616B4F
:10367000000E636F0A0E626F97EC1AF00001605142
:10368000300FB4EC1CF0C5C060F00001616B000E9F
:10369000636F0A0E626F55EC1BF000016051300F32
:1036A000B4EC1CF0D9C0D7F01200000E0001656F19
:1036B00061BF5FEF1BF05DEF1BF065EF1BF0606D0E
:1036C000611FD8B0612B010E656F63BF6CEF1BF0FB
:1036D0006AEF1BF070EF1BF0626D631FD8B0632BB5
:1036E00062516311D8B477EF1BF079EF1BF09DEFB7
:1036F0001BF0010E646F81EF1BF0D89062376337C7
:10370000642B63AF86EF1BF088EF1BF07DEF1BF09F
:103710006251605D63516159D8A091EF1BF093EF46
:103720001BF097EF1BF06251605F6351615BD890B3
:1037300063336233642F88EF1BF06551D8B4A3EF75
:103740001BF0A5EF1BF0A9EF1BF0606D611FD8B057
:10375000612B60C060F061C061F0120060C064F075
:10376000C7EF1BF0C70ED56E000ED76EB20ED66E29
:10377000F28AF294E9EF1BF00F0ECD6E800ECF6E41
:10378000000ECE6E9E909D80CD80E9EF1BF0000173
:103790006451626F636B6351000AD8B4D2EF1BF0BF
:1037A000E9EF1BF06251000AD8B4B2EF1BF0010A36
:1037B000D8B4BCEF1BF0030AD8B4E9EF1BF0010A40
:1037C000D8B4E9EF1BF0070AD8B4E9EF1BF0E9EF32
:1037D0001BF0010E556E12006C0EF66E3C0EF76E6D
:1037E000000EF86E00EEE0F010EE04F00900F5CFE8
:1037F000EEFFE550E150FAE1740EF66E3C0EF76E06
:10380000000EF86E0900F5CF5AF00900F5CF5BF015
:103810000900F5CF5CF001EE00F0E60EEE6AE80676
:10382000FDE100EEB1F02F0EEE6AE806FDE100EEDC
:1038300044F0160EEE6AE806FDE15D905D9200012F
:10384000B8EF1DF00001606F60C062F0000E000173
:10385000616F60AF2EEF1CF030EF1CF033EF1CF007
:103860008B8A34EF1CF08B9A8BA839EF1CF03BEF5E
:103870001CF03FEF1CF0D880623742EF1CF0625121
:103880006225626F8B8600F000F000F000F000F01F
:1038900000F08B960001D8906037612B070E6165B0
:1038A00054EF1CF056EF1CF029EF1CF012001EEC38
:1038B0001EF0979C8E9C040E0001666F3D0EE82E54
:1038C000FED7662FFCD700D08E8C000E04EC1EF0C5
:1038D000010E04EC1EF0000E0001636F120EF4ECFA
:1038E0001DF0310E0001666FB20EE82EFED7662F76
:1038F000FCD700F0320E8AEC1CF03C0E8AEC1CF077
:103900000C0E8AEC1CF0010E8AEC1CF0060E8AEC00
:103910001CF012000001656F290EE82EFED700D0C2
:10392000000E0001636F120EF4EC1DF0080EE82E7D
:10393000FED700F065C063F0130EF4EC1DF0080E26
:10394000E82EFED700F0400E0001636F120EF4EC7B
:103950001DF0080EE82EFED700F0000E0001636F88
:10396000120EF4EC1DF012000001656F290EE82E16
:10397000FED700D0800E0001636F120EF4EC1DF034
:10398000080EE82EFED700F065C063F0130EF4ECCD
:103990001DF0080EE82EFED700F0C00E0001636F88
:1039A000120EF4EC1DF0080EE82EFED700F0000E0B
:1039B0000001636F120EF4EC1DF0120057EC1CF0C6
:1039C000010E8AEC1CF0800E8AEC1CF0890E0001BE
:1039D000666F100E676F4DEC1DF0C00E8AEC1CF088
:1039E000670E0001666F100E676F4DEC1DF00D0E37
:1039F0000001696FAF0E686FB60EE82EFED7682F14
:103A0000FCD7692FFAD700F0120059C05CF0000E05
:103A100080BA010E596E59505C18D8A412EF1DF0EF
:103A200014EF1DF026EF1DF05950D8A41AEF1DF029
:103A30001CEF1DF021EF1DF0010E0001DE6F29EFDC
:103A40001DF0020E0001DE6F29EF1DF0000E0001D7
:103A5000DE6F1200DFC0E3F0000E81B0010E000146
:103A6000DF6FDF51E319D8A438EF1DF03AEF1DF0F6
:103A70004AEF1DF0DF51D8A440EF1DF042EF1DF0DA
:103A800046EF1DF0010EDD6F4CEF1DF0020EDD6FF5
:103A90004CEF1DF0000EDD6F12005CEF1DF066C0F4
:103AA000F6FF67C0F7FF000EF86E0800F550B4ECA3
:103AB0001CF00001664B672B66C0F6FF67C0F7FF7E
:103AC000000EF86E0800F5500009D8A46AEF1DF04A
:103AD0006CEF1DF04FEF1DF012005650D8A473EF9D
:103AE0001DF075EF1DF080EF1DF0000E0001D46F8A
:103AF000000ED36F8C988C96010E566E89EF1DF0D8
:103B0000000E0001D26F000ED16F8C9E8C9C000EB7
:103B1000566E1200010E8AEC1CF0800E8AEC1CF02E
:103B2000450E0001666F100E676F4DEC1DF0C00E64
:103B30008AEC1CF0780E0001666F100E676F4DEC7A
:103B40001DF01200C4EC17F00009D8A4AAEF1DF074
:103B5000ACEF1DF0B3EF1DF0000E0001DA6F000EA8
:103B6000D96FB7EF1DF0C7C0DAF0C5C0D9F01200A9
:103B700013EC1EF066EC18F0000E0001616F000EF1
:103B8000606FAEEC1BF08AEC1DF099EC19F030EC94
:103B900015F0C5EF1DF007EF00F000016051620362
:103BA000F3CF64F0F4CF65F060516303F350652701
:103BB00061516203F350652764C060F065C061F035
:103BC000120001500302F3CF05F0F4CF06F00150CC
:103BD0000402F350062602500302F350062605C0E5
:103BE00001F006C002F012000001646F8994400EDB
:103BF00022EC1CF00001645122EC1CF00001635126
:103C000022EC1CF0898412000001636F8994400E3D
:103C100022EC1CF00001635122EC1CF0000E22EC9F
:103C20001CF08984120027EC1EF02CEC1EF031EC05
:103C30001EF038EC1EF0DEEC1CF01200929494881A
:103C4000949A949689848B888B9A8B961200730E23
:103C5000D36E0F0E9B6E1200000E956E000E836EDB
:103C600012000F0EC16E928A9380120005010101AD
:073C7000F28E120032010187
:020000040020DA
:08000000FFFFFFFFFFFFFFFF00
:020000040030CA
:0E000000FF09191EF38381FFFFC0FFE0FF40E0
:00000001FF
